{
  "_format": "hh-sol-artifact-1",
  "contractName": "ContributionRewardSystem",
  "sourceName": "contracts/EcoCoinSmartContract.sol",
  "abi": [
    {
      "inputs": [
        {
          "internalType": "address",
          "name": "_contributionNFTAddress",
          "type": "address"
        },
        {
          "internalType": "address",
          "name": "_ecoCoinAddress",
          "type": "address"
        }
      ],
      "stateMutability": "nonpayable",
      "type": "constructor"
    },
    {
      "inputs": [
        {
          "internalType": "uint256",
          "name": "tokenId",
          "type": "uint256"
        }
      ],
      "name": "AlreadyClaimed",
      "type": "error"
    },
    {
      "inputs": [
        {
          "internalType": "uint256",
          "name": "amount",
          "type": "uint256"
        }
      ],
      "name": "InsufficientBalance",
      "type": "error"
    },
    {
      "inputs": [
        {
          "internalType": "address",
          "name": "userAddress",
          "type": "address"
        }
      ],
      "name": "InvalidAddress",
      "type": "error"
    },
    {
      "inputs": [
        {
          "internalType": "string",
          "name": "message",
          "type": "string"
        }
      ],
      "name": "Unauthorized",
      "type": "error"
    },
    {
      "inputs": [],
      "name": "ZeroAmount",
      "type": "error"
    },
    {
      "anonymous": false,
      "inputs": [
        {
          "indexed": true,
          "internalType": "address",
          "name": "oldOwner",
          "type": "address"
        },
        {
          "indexed": true,
          "internalType": "address",
          "name": "newOwner",
          "type": "address"
        }
      ],
      "name": "OwnershipTransferred",
      "type": "event"
    },
    {
      "anonymous": false,
      "inputs": [
        {
          "indexed": false,
          "internalType": "uint256",
          "name": "level1Reward",
          "type": "uint256"
        },
        {
          "indexed": true,
          "internalType": "uint256",
          "name": "level2Reward",
          "type": "uint256"
        },
        {
          "indexed": false,
          "internalType": "uint256",
          "name": "level3Reward",
          "type": "uint256"
        }
      ],
      "name": "RewardAmountUpdated",
      "type": "event"
    },
    {
      "anonymous": false,
      "inputs": [
        {
          "indexed": true,
          "internalType": "address",
          "name": "user",
          "type": "address"
        },
        {
          "indexed": true,
          "internalType": "uint256",
          "name": "tokenId",
          "type": "uint256"
        },
        {
          "indexed": false,
          "internalType": "uint8",
          "name": "nftLevel",
          "type": "uint8"
        }
      ],
      "name": "RewardClaimed",
      "type": "event"
    },
    {
      "anonymous": false,
      "inputs": [
        {
          "indexed": true,
          "internalType": "address",
          "name": "user",
          "type": "address"
        },
        {
          "indexed": true,
          "internalType": "enum ContributionRewardSystem.NFTLevel",
          "name": "newLevel",
          "type": "uint8"
        }
      ],
      "name": "UserLevelUpdated",
      "type": "event"
    },
    {
      "anonymous": false,
      "inputs": [
        {
          "indexed": true,
          "internalType": "address",
          "name": "owner",
          "type": "address"
        },
        {
          "indexed": true,
          "internalType": "uint256",
          "name": "amount",
          "type": "uint256"
        }
      ],
      "name": "Withdrawn",
      "type": "event"
    },
    {
      "inputs": [],
      "name": "LEVEL1_REWARD",
      "outputs": [
        {
          "internalType": "uint256",
          "name": "",
          "type": "uint256"
        }
      ],
      "stateMutability": "view",
      "type": "function"
    },
    {
      "inputs": [],
      "name": "LEVEL2_REWARD",
      "outputs": [
        {
          "internalType": "uint256",
          "name": "",
          "type": "uint256"
        }
      ],
      "stateMutability": "view",
      "type": "function"
    },
    {
      "inputs": [],
      "name": "LEVEL3_REWARD",
      "outputs": [
        {
          "internalType": "uint256",
          "name": "",
          "type": "uint256"
        }
      ],
      "stateMutability": "view",
      "type": "function"
    },
    {
      "inputs": [
        {
          "internalType": "address",
          "name": "",
          "type": "address"
        }
      ],
      "name": "claimCount",
      "outputs": [
        {
          "internalType": "uint256",
          "name": "",
          "type": "uint256"
        }
      ],
      "stateMutability": "view",
      "type": "function"
    },
    {
      "inputs": [
        {
          "internalType": "uint256",
          "name": "_tokenId",
          "type": "uint256"
        }
      ],
      "name": "claimRewards",
      "outputs": [],
      "stateMutability": "nonpayable",
      "type": "function"
    },
    {
      "inputs": [],
      "name": "contributionNFT",
      "outputs": [
        {
          "internalType": "contract PlasticContributionNFT",
          "name": "",
          "type": "address"
        }
      ],
      "stateMutability": "view",
      "type": "function"
    },
    {
      "inputs": [],
      "name": "ecoCoin",
      "outputs": [
        {
          "internalType": "contract EcoCoin",
          "name": "",
          "type": "address"
        }
      ],
      "stateMutability": "view",
      "type": "function"
    },
    {
      "inputs": [
        {
          "internalType": "address",
          "name": "_user",
          "type": "address"
        }
      ],
      "name": "getUserBalance",
      "outputs": [
        {
          "internalType": "uint256",
          "name": "",
          "type": "uint256"
        }
      ],
      "stateMutability": "view",
      "type": "function"
    },
    {
      "inputs": [
        {
          "internalType": "address",
          "name": "_user",
          "type": "address"
        }
      ],
      "name": "getUserClaimCount",
      "outputs": [
        {
          "internalType": "uint256",
          "name": "",
          "type": "uint256"
        }
      ],
      "stateMutability": "view",
      "type": "function"
    },
    {
      "inputs": [
        {
          "internalType": "address",
          "name": "_user",
          "type": "address"
        }
      ],
      "name": "getUserLevel",
      "outputs": [
        {
          "internalType": "enum ContributionRewardSystem.NFTLevel",
          "name": "",
          "type": "uint8"
        }
      ],
      "stateMutability": "view",
      "type": "function"
    },
    {
      "inputs": [],
      "name": "owner",
      "outputs": [
        {
          "internalType": "address",
          "name": "",
          "type": "address"
        }
      ],
      "stateMutability": "view",
      "type": "function"
    },
    {
      "inputs": [
        {
          "internalType": "uint256",
          "name": "",
          "type": "uint256"
        }
      ],
      "name": "rewardedNFTs",
      "outputs": [
        {
          "internalType": "bool",
          "name": "",
          "type": "bool"
        }
      ],
      "stateMutability": "view",
      "type": "function"
    },
    {
      "inputs": [
        {
          "internalType": "uint256",
          "name": "_level1Reward",
          "type": "uint256"
        },
        {
          "internalType": "uint256",
          "name": "_level2Reward",
          "type": "uint256"
        },
        {
          "internalType": "uint256",
          "name": "_level3Reward",
          "type": "uint256"
        }
      ],
      "name": "setRewardAmounts",
      "outputs": [],
      "stateMutability": "nonpayable",
      "type": "function"
    },
    {
      "inputs": [
        {
          "internalType": "address",
          "name": "",
          "type": "address"
        }
      ],
      "name": "userLevels",
      "outputs": [
        {
          "internalType": "enum ContributionRewardSystem.NFTLevel",
          "name": "",
          "type": "uint8"
        }
      ],
      "stateMutability": "view",
      "type": "function"
    },
    {
      "inputs": [
        {
          "internalType": "uint256",
          "name": "amount",
          "type": "uint256"
        }
      ],
      "name": "withdrawTokens",
      "outputs": [],
      "stateMutability": "nonpayable",
      "type": "function"
    }
  ],
  "bytecode": "0x6080604052670de0b6b3a7640000600355671bc16d674ec80000600455673782dace9d90000060055534801561003457600080fd5b5060405161195738038061195783398181016040528101906100569190610182565b816000806101000a81548173ffffffffffffffffffffffffffffffffffffffff021916908373ffffffffffffffffffffffffffffffffffffffff16021790555080600160006101000a81548173ffffffffffffffffffffffffffffffffffffffff021916908373ffffffffffffffffffffffffffffffffffffffff16021790555033600260006101000a81548173ffffffffffffffffffffffffffffffffffffffff021916908373ffffffffffffffffffffffffffffffffffffffff16021790555050506101c2565b600080fd5b600073ffffffffffffffffffffffffffffffffffffffff82169050919050565b600061014f82610124565b9050919050565b61015f81610144565b811461016a57600080fd5b50565b60008151905061017c81610156565b92915050565b600080604083850312156101995761019861011f565b5b60006101a78582860161016d565b92505060206101b88582860161016d565b9150509250929050565b611786806101d16000396000f3fe608060405234801561001057600080fd5b50600436106100f55760003560e01c806347734892116100975780638da5cb5b116100665780638da5cb5b14610298578063acd6325c146102b6578063d78f45bf146102d4578063e72fe4ff14610304576100f5565b806347734892146101fc5780635d86e7fd1461022c57806369c12cb71461024a5780636d8d1a5e1461027a576100f5565b806330413ccf116100d357806330413ccf14610162578063315a095d14610192578063326aaf56146101ae57806340676a51146101cc576100f5565b80630962ef79146100fa57806321923bde146101165780632be0d14214610146575b600080fd5b610114600480360381019061010f919061116f565b610322565b005b610130600480360381019061012b91906111fa565b610895565b60405161013d919061129e565b60405180910390f35b610160600480360381019061015b91906112b9565b6108eb565b005b61017c600480360381019061017791906111fa565b610a20565b604051610189919061129e565b60405180910390f35b6101ac60048036038101906101a7919061116f565b610a40565b005b6101b6610cdc565b6040516101c3919061131b565b60405180910390f35b6101e660048036038101906101e191906111fa565b610ce2565b6040516101f3919061131b565b60405180910390f35b610216600480360381019061021191906111fa565b610d2b565b604051610223919061131b565b60405180910390f35b610234610dd0565b6040516102419190611395565b60405180910390f35b610264600480360381019061025f91906111fa565b610df4565b604051610271919061131b565b60405180910390f35b610282610e0c565b60405161028f919061131b565b60405180910390f35b6102a0610e12565b6040516102ad91906113bf565b60405180910390f35b6102be610e38565b6040516102cb91906113fb565b60405180910390f35b6102ee60048036038101906102e9919061116f565b610e5e565b6040516102fb9190611431565b60405180910390f35b61030c610e7e565b604051610319919061131b565b60405180910390f35b3373ffffffffffffffffffffffffffffffffffffffff1660008054906101000a900473ffffffffffffffffffffffffffffffffffffffff1673ffffffffffffffffffffffffffffffffffffffff16636352211e836040518263ffffffff1660e01b8152600401610392919061131b565b602060405180830381865afa1580156103af573d6000803e3d6000fd5b505050506040513d601f19601f820116820180604052508101906103d39190611461565b73ffffffffffffffffffffffffffffffffffffffff1614610429576040517f973d02cb000000000000000000000000000000000000000000000000000000008152600401610420906114eb565b60405180910390fd5b6006600082815260200190815260200160002060009054906101000a900460ff161561048c57806040517fb3167bfa000000000000000000000000000000000000000000000000000000008152600401610483919061131b565b60405180910390fd5b60008060009054906101000a900473ffffffffffffffffffffffffffffffffffffffff1673ffffffffffffffffffffffffffffffffffffffff1663080e035d836040518263ffffffff1660e01b81526004016104e8919061131b565b602060405180830381865afa158015610505573d6000803e3d6000fd5b505050506040513d601f19601f820116820180604052508101906105299190611530565b90506001600860003373ffffffffffffffffffffffffffffffffffffffff1673ffffffffffffffffffffffffffffffffffffffff168152602001908152602001600020600082825461057b919061158c565b9250508190555061058b33610e84565b6000600281111561059f5761059e611227565b5b8160028111156105b2576105b1611227565b5b0361065f57600160009054906101000a900473ffffffffffffffffffffffffffffffffffffffff1673ffffffffffffffffffffffffffffffffffffffff1663a9059cbb336003546040518363ffffffff1660e01b81526004016106169291906115c0565b6020604051808303816000875af1158015610635573d6000803e3d6000fd5b505050506040513d601f19601f820116820180604052508101906106599190611615565b50610804565b6001600281111561067357610672611227565b5b81600281111561068657610685611227565b5b0361073357600160009054906101000a900473ffffffffffffffffffffffffffffffffffffffff1673ffffffffffffffffffffffffffffffffffffffff1663a9059cbb336004546040518363ffffffff1660e01b81526004016106ea9291906115c0565b6020604051808303816000875af1158015610709573d6000803e3d6000fd5b505050506040513d601f19601f8201168201806040525081019061072d9190611615565b50610803565b60028081111561074657610745611227565b5b81600281111561075957610758611227565b5b0361080257600160009054906101000a900473ffffffffffffffffffffffffffffffffffffffff1673ffffffffffffffffffffffffffffffffffffffff1663a9059cbb336005546040518363ffffffff1660e01b81526004016107bd9291906115c0565b6020604051808303816000875af11580156107dc573d6000803e3d6000fd5b505050506040513d601f19601f820116820180604052508101906108009190611615565b505b5b5b60016006600084815260200190815260200160002060006101000a81548160ff021916908315150217905550813373ffffffffffffffffffffffffffffffffffffffff167ff51907dbc5b04a8774c652d1286ccc070b3ae6394425a0236dc79e8e8d994fee83600281111561087c5761087b611227565b5b604051610889919061165e565b60405180910390a35050565b6000600760008373ffffffffffffffffffffffffffffffffffffffff1673ffffffffffffffffffffffffffffffffffffffff16815260200190815260200160002060009054906101000a900460ff169050919050565b600260009054906101000a900473ffffffffffffffffffffffffffffffffffffffff1673ffffffffffffffffffffffffffffffffffffffff163373ffffffffffffffffffffffffffffffffffffffff161461097b576040517f973d02cb000000000000000000000000000000000000000000000000000000008152600401610972906116c5565b60405180910390fd5b600083148061098a5750600082145b806109955750600081145b156109cc576040517f1f2a200500000000000000000000000000000000000000000000000000000000815260040160405180910390fd5b826003819055508160048190555080600581905550817ffef6bdea3c0cbf956ce9fb4eb0d3a866cf83a3d81ed12f508d4223fe7bec71528483604051610a139291906116e5565b60405180910390a2505050565b60076020528060005260406000206000915054906101000a900460ff1681565b600260009054906101000a900473ffffffffffffffffffffffffffffffffffffffff1673ffffffffffffffffffffffffffffffffffffffff163373ffffffffffffffffffffffffffffffffffffffff1614610ad0576040517f973d02cb000000000000000000000000000000000000000000000000000000008152600401610ac7906116c5565b60405180910390fd5b80600160009054906101000a900473ffffffffffffffffffffffffffffffffffffffff1673ffffffffffffffffffffffffffffffffffffffff166370a08231306040518263ffffffff1660e01b8152600401610b2c91906113bf565b602060405180830381865afa158015610b49573d6000803e3d6000fd5b505050506040513d601f19601f82011682018060405250810190610b6d9190611723565b1015610bb057806040517f92665351000000000000000000000000000000000000000000000000000000008152600401610ba7919061131b565b60405180910390fd5b600160009054906101000a900473ffffffffffffffffffffffffffffffffffffffff1673ffffffffffffffffffffffffffffffffffffffff1663a9059cbb600260009054906101000a900473ffffffffffffffffffffffffffffffffffffffff16836040518363ffffffff1660e01b8152600401610c2f9291906115c0565b6020604051808303816000875af1158015610c4e573d6000803e3d6000fd5b505050506040513d601f19601f82011682018060405250810190610c729190611615565b5080600260009054906101000a900473ffffffffffffffffffffffffffffffffffffffff1673ffffffffffffffffffffffffffffffffffffffff167f7084f5476618d8e60b11ef0d7d3f06914655adb8793e28ff7f018d4c76d505d560405160405180910390a350565b60045481565b6000600860008373ffffffffffffffffffffffffffffffffffffffff1673ffffffffffffffffffffffffffffffffffffffff168152602001908152602001600020549050919050565b6000600160009054906101000a900473ffffffffffffffffffffffffffffffffffffffff1673ffffffffffffffffffffffffffffffffffffffff166370a08231836040518263ffffffff1660e01b8152600401610d8891906113bf565b602060405180830381865afa158015610da5573d6000803e3d6000fd5b505050506040513d601f19601f82011682018060405250810190610dc99190611723565b9050919050565b60008054906101000a900473ffffffffffffffffffffffffffffffffffffffff1681565b60086020528060005260406000206000915090505481565b60055481565b600260009054906101000a900473ffffffffffffffffffffffffffffffffffffffff1681565b600160009054906101000a900473ffffffffffffffffffffffffffffffffffffffff1681565b60066020528060005260406000206000915054906101000a900460ff1681565b60035481565b600073ffffffffffffffffffffffffffffffffffffffff168173ffffffffffffffffffffffffffffffffffffffff1603610ef557806040517f8e4c8aa6000000000000000000000000000000000000000000000000000000008152600401610eec91906113bf565b60405180910390fd5b6000600860008373ffffffffffffffffffffffffffffffffffffffff1673ffffffffffffffffffffffffffffffffffffffff16815260200190815260200160002054905060078110610fae576002600760008473ffffffffffffffffffffffffffffffffffffffff1673ffffffffffffffffffffffffffffffffffffffff16815260200190815260200160002060006101000a81548160ff02191690836002811115610fa457610fa3611227565b5b021790555061108e565b6004811115611024576001600760008473ffffffffffffffffffffffffffffffffffffffff1673ffffffffffffffffffffffffffffffffffffffff16815260200190815260200160002060006101000a81548160ff0219169083600281111561101a57611019611227565b5b021790555061108d565b6000600760008473ffffffffffffffffffffffffffffffffffffffff1673ffffffffffffffffffffffffffffffffffffffff16815260200190815260200160002060006101000a81548160ff0219169083600281111561108757611086611227565b5b02179055505b5b600760008373ffffffffffffffffffffffffffffffffffffffff1673ffffffffffffffffffffffffffffffffffffffff16815260200190815260200160002060009054906101000a900460ff1660028111156110ed576110ec611227565b5b8273ffffffffffffffffffffffffffffffffffffffff167ffa10cf37484738b94827b14e7a45249dcb00ed443ae5bcd5936e0a67d503979360405160405180910390a35050565b600080fd5b6000819050919050565b61114c81611139565b811461115757600080fd5b50565b60008135905061116981611143565b92915050565b60006020828403121561118557611184611134565b5b60006111938482850161115a565b91505092915050565b600073ffffffffffffffffffffffffffffffffffffffff82169050919050565b60006111c78261119c565b9050919050565b6111d7816111bc565b81146111e257600080fd5b50565b6000813590506111f4816111ce565b92915050565b6000602082840312156112105761120f611134565b5b600061121e848285016111e5565b91505092915050565b7f4e487b7100000000000000000000000000000000000000000000000000000000600052602160045260246000fd5b6003811061126757611266611227565b5b50565b600081905061127882611256565b919050565b60006112888261126a565b9050919050565b6112988161127d565b82525050565b60006020820190506112b3600083018461128f565b92915050565b6000806000606084860312156112d2576112d1611134565b5b60006112e08682870161115a565b93505060206112f18682870161115a565b92505060406113028682870161115a565b9150509250925092565b61131581611139565b82525050565b6000602082019050611330600083018461130c565b92915050565b6000819050919050565b600061135b6113566113518461119c565b611336565b61119c565b9050919050565b600061136d82611340565b9050919050565b600061137f82611362565b9050919050565b61138f81611374565b82525050565b60006020820190506113aa6000830184611386565b92915050565b6113b9816111bc565b82525050565b60006020820190506113d460008301846113b0565b92915050565b60006113e582611362565b9050919050565b6113f5816113da565b82525050565b600060208201905061141060008301846113ec565b92915050565b60008115159050919050565b61142b81611416565b82525050565b60006020820190506114466000830184611422565b92915050565b60008151905061145b816111ce565b92915050565b60006020828403121561147757611476611134565b5b60006114858482850161144c565b91505092915050565b600082825260208201905092915050565b7f596f7520646f206e6f74206f776e2074686973204e4654000000000000000000600082015250565b60006114d560178361148e565b91506114e08261149f565b602082019050919050565b60006020820190508181036000830152611504816114c8565b9050919050565b6003811061151857600080fd5b50565b60008151905061152a8161150b565b92915050565b60006020828403121561154657611545611134565b5b60006115548482850161151b565b91505092915050565b7f4e487b7100000000000000000000000000000000000000000000000000000000600052601160045260246000fd5b600061159782611139565b91506115a283611139565b92508282019050808211156115ba576115b961155d565b5b92915050565b60006040820190506115d560008301856113b0565b6115e2602083018461130c565b9392505050565b6115f281611416565b81146115fd57600080fd5b50565b60008151905061160f816115e9565b92915050565b60006020828403121561162b5761162a611134565b5b600061163984828501611600565b91505092915050565b600060ff82169050919050565b61165881611642565b82525050565b6000602082019050611673600083018461164f565b92915050565b7f596f7520617265206e6f7420746865206f776e65720000000000000000000000600082015250565b60006116af60158361148e565b91506116ba82611679565b602082019050919050565b600060208201905081810360008301526116de816116a2565b9050919050565b60006040820190506116fa600083018561130c565b611707602083018461130c565b9392505050565b60008151905061171d81611143565b92915050565b60006020828403121561173957611738611134565b5b60006117478482850161170e565b9150509291505056fea2646970667358221220628a578c90e71f63a7a8092de00fde8c860a650600b6faecf4be8490c69bf29564736f6c634300081b0033",
  "linkReferences": {},
  "deployedLinkReferences": {}
}