{
  "_format": "hh-sol-artifact-1",
  "contractName": "PlasticContributionNFT",
  "sourceName": "contracts/nft.sol",
  "abi": [
    {
      "inputs": [],
      "stateMutability": "nonpayable",
      "type": "constructor"
    },
    {
      "inputs": [
        {
          "internalType": "address",
          "name": "sender",
          "type": "address"
        },
        {
          "internalType": "uint256",
          "name": "tokenId",
          "type": "uint256"
        },
        {
          "internalType": "address",
          "name": "owner",
          "type": "address"
        }
      ],
      "name": "ERC721IncorrectOwner",
      "type": "error"
    },
    {
      "inputs": [
        {
          "internalType": "address",
          "name": "operator",
          "type": "address"
        },
        {
          "internalType": "uint256",
          "name": "tokenId",
          "type": "uint256"
        }
      ],
      "name": "ERC721InsufficientApproval",
      "type": "error"
    },
    {
      "inputs": [
        {
          "internalType": "address",
          "name": "approver",
          "type": "address"
        }
      ],
      "name": "ERC721InvalidApprover",
      "type": "error"
    },
    {
      "inputs": [
        {
          "internalType": "address",
          "name": "operator",
          "type": "address"
        }
      ],
      "name": "ERC721InvalidOperator",
      "type": "error"
    },
    {
      "inputs": [
        {
          "internalType": "address",
          "name": "owner",
          "type": "address"
        }
      ],
      "name": "ERC721InvalidOwner",
      "type": "error"
    },
    {
      "inputs": [
        {
          "internalType": "address",
          "name": "receiver",
          "type": "address"
        }
      ],
      "name": "ERC721InvalidReceiver",
      "type": "error"
    },
    {
      "inputs": [
        {
          "internalType": "address",
          "name": "sender",
          "type": "address"
        }
      ],
      "name": "ERC721InvalidSender",
      "type": "error"
    },
    {
      "inputs": [
        {
          "internalType": "uint256",
          "name": "tokenId",
          "type": "uint256"
        }
      ],
      "name": "ERC721NonexistentToken",
      "type": "error"
    },
    {
      "inputs": [],
      "name": "InvalidTokenId",
      "type": "error"
    },
    {
      "inputs": [
        {
          "internalType": "address",
          "name": "owner",
          "type": "address"
        }
      ],
      "name": "OwnableInvalidOwner",
      "type": "error"
    },
    {
      "inputs": [
        {
          "internalType": "address",
          "name": "account",
          "type": "address"
        }
      ],
      "name": "OwnableUnauthorizedAccount",
      "type": "error"
    },
    {
      "inputs": [],
      "name": "Unauthorized",
      "type": "error"
    },
    {
      "anonymous": false,
      "inputs": [
        {
          "indexed": true,
          "internalType": "address",
          "name": "owner",
          "type": "address"
        },
        {
          "indexed": true,
          "internalType": "address",
          "name": "approved",
          "type": "address"
        },
        {
          "indexed": true,
          "internalType": "uint256",
          "name": "tokenId",
          "type": "uint256"
        }
      ],
      "name": "Approval",
      "type": "event"
    },
    {
      "anonymous": false,
      "inputs": [
        {
          "indexed": true,
          "internalType": "address",
          "name": "owner",
          "type": "address"
        },
        {
          "indexed": true,
          "internalType": "address",
          "name": "operator",
          "type": "address"
        },
        {
          "indexed": false,
          "internalType": "bool",
          "name": "approved",
          "type": "bool"
        }
      ],
      "name": "ApprovalForAll",
      "type": "event"
    },
    {
      "anonymous": false,
      "inputs": [
        {
          "indexed": false,
          "internalType": "uint256",
          "name": "_fromTokenId",
          "type": "uint256"
        },
        {
          "indexed": false,
          "internalType": "uint256",
          "name": "_toTokenId",
          "type": "uint256"
        }
      ],
      "name": "BatchMetadataUpdate",
      "type": "event"
    },
    {
      "anonymous": false,
      "inputs": [
        {
          "indexed": true,
          "internalType": "address",
          "name": "recipient",
          "type": "address"
        },
        {
          "indexed": false,
          "internalType": "uint256",
          "name": "newContribution",
          "type": "uint256"
        }
      ],
      "name": "ContributionUpdated",
      "type": "event"
    },
    {
      "anonymous": false,
      "inputs": [
        {
          "indexed": false,
          "internalType": "uint256",
          "name": "_tokenId",
          "type": "uint256"
        }
      ],
      "name": "MetadataUpdate",
      "type": "event"
    },
    {
      "anonymous": false,
      "inputs": [
        {
          "indexed": true,
          "internalType": "uint256",
          "name": "tokenId",
          "type": "uint256"
        },
        {
          "indexed": false,
          "internalType": "enum PlasticContributionNFT.NFTLevel",
          "name": "newLevel",
          "type": "uint8"
        }
      ],
      "name": "NFTLevelUpgraded",
      "type": "event"
    },
    {
      "anonymous": false,
      "inputs": [
        {
          "indexed": true,
          "internalType": "address",
          "name": "recipient",
          "type": "address"
        },
        {
          "indexed": false,
          "internalType": "uint256",
          "name": "tokenId",
          "type": "uint256"
        },
        {
          "indexed": false,
          "internalType": "enum PlasticContributionNFT.NFTLevel",
          "name": "level",
          "type": "uint8"
        }
      ],
      "name": "NFTMinted",
      "type": "event"
    },
    {
      "anonymous": false,
      "inputs": [
        {
          "indexed": true,
          "internalType": "address",
          "name": "previousOwner",
          "type": "address"
        },
        {
          "indexed": true,
          "internalType": "address",
          "name": "newOwner",
          "type": "address"
        }
      ],
      "name": "OwnershipTransferred",
      "type": "event"
    },
    {
      "anonymous": false,
      "inputs": [
        {
          "indexed": true,
          "internalType": "address",
          "name": "from",
          "type": "address"
        },
        {
          "indexed": true,
          "internalType": "address",
          "name": "to",
          "type": "address"
        },
        {
          "indexed": true,
          "internalType": "uint256",
          "name": "tokenId",
          "type": "uint256"
        }
      ],
      "name": "Transfer",
      "type": "event"
    },
    {
      "anonymous": false,
      "inputs": [
        {
          "indexed": true,
          "internalType": "enum PlasticContributionNFT.NFTLevel",
          "name": "level",
          "type": "uint8"
        },
        {
          "indexed": false,
          "internalType": "string",
          "name": "newURI",
          "type": "string"
        }
      ],
      "name": "URIUpdated",
      "type": "event"
    },
    {
      "inputs": [],
      "name": "CONTRIBUTION_THRESHOLD",
      "outputs": [
        {
          "internalType": "uint256",
          "name": "",
          "type": "uint256"
        }
      ],
      "stateMutability": "view",
      "type": "function"
    },
    {
      "inputs": [
        {
          "internalType": "address",
          "name": "to",
          "type": "address"
        },
        {
          "internalType": "uint256",
          "name": "tokenId",
          "type": "uint256"
        }
      ],
      "name": "approve",
      "outputs": [],
      "stateMutability": "nonpayable",
      "type": "function"
    },
    {
      "inputs": [
        {
          "internalType": "address",
          "name": "owner",
          "type": "address"
        }
      ],
      "name": "balanceOf",
      "outputs": [
        {
          "internalType": "uint256",
          "name": "",
          "type": "uint256"
        }
      ],
      "stateMutability": "view",
      "type": "function"
    },
    {
      "inputs": [
        {
          "internalType": "uint256",
          "name": "tokenId",
          "type": "uint256"
        }
      ],
      "name": "getApproved",
      "outputs": [
        {
          "internalType": "address",
          "name": "",
          "type": "address"
        }
      ],
      "stateMutability": "view",
      "type": "function"
    },
    {
      "inputs": [
        {
          "internalType": "uint256",
          "name": "tokenId",
          "type": "uint256"
        }
      ],
      "name": "getNFTLevel",
      "outputs": [
        {
          "internalType": "enum PlasticContributionNFT.NFTLevel",
          "name": "",
          "type": "uint8"
        }
      ],
      "stateMutability": "view",
      "type": "function"
    },
    {
      "inputs": [
        {
          "internalType": "address",
          "name": "owner",
          "type": "address"
        },
        {
          "internalType": "address",
          "name": "operator",
          "type": "address"
        }
      ],
      "name": "isApprovedForAll",
      "outputs": [
        {
          "internalType": "bool",
          "name": "",
          "type": "bool"
        }
      ],
      "stateMutability": "view",
      "type": "function"
    },
    {
      "inputs": [],
      "name": "level1URI",
      "outputs": [
        {
          "internalType": "string",
          "name": "",
          "type": "string"
        }
      ],
      "stateMutability": "view",
      "type": "function"
    },
    {
      "inputs": [],
      "name": "level2URI",
      "outputs": [
        {
          "internalType": "string",
          "name": "",
          "type": "string"
        }
      ],
      "stateMutability": "view",
      "type": "function"
    },
    {
      "inputs": [],
      "name": "level3URI",
      "outputs": [
        {
          "internalType": "string",
          "name": "",
          "type": "string"
        }
      ],
      "stateMutability": "view",
      "type": "function"
    },
    {
      "inputs": [
        {
          "internalType": "address",
          "name": "recipient",
          "type": "address"
        }
      ],
      "name": "mintNFT",
      "outputs": [
        {
          "internalType": "uint256",
          "name": "",
          "type": "uint256"
        }
      ],
      "stateMutability": "nonpayable",
      "type": "function"
    },
    {
      "inputs": [],
      "name": "name",
      "outputs": [
        {
          "internalType": "string",
          "name": "",
          "type": "string"
        }
      ],
      "stateMutability": "view",
      "type": "function"
    },
    {
      "inputs": [],
      "name": "owner",
      "outputs": [
        {
          "internalType": "address",
          "name": "",
          "type": "address"
        }
      ],
      "stateMutability": "view",
      "type": "function"
    },
    {
      "inputs": [
        {
          "internalType": "uint256",
          "name": "tokenId",
          "type": "uint256"
        }
      ],
      "name": "ownerOf",
      "outputs": [
        {
          "internalType": "address",
          "name": "",
          "type": "address"
        }
      ],
      "stateMutability": "view",
      "type": "function"
    },
    {
      "inputs": [],
      "name": "renounceOwnership",
      "outputs": [],
      "stateMutability": "nonpayable",
      "type": "function"
    },
    {
      "inputs": [
        {
          "internalType": "address",
          "name": "from",
          "type": "address"
        },
        {
          "internalType": "address",
          "name": "to",
          "type": "address"
        },
        {
          "internalType": "uint256",
          "name": "tokenId",
          "type": "uint256"
        }
      ],
      "name": "safeTransferFrom",
      "outputs": [],
      "stateMutability": "nonpayable",
      "type": "function"
    },
    {
      "inputs": [
        {
          "internalType": "address",
          "name": "from",
          "type": "address"
        },
        {
          "internalType": "address",
          "name": "to",
          "type": "address"
        },
        {
          "internalType": "uint256",
          "name": "tokenId",
          "type": "uint256"
        },
        {
          "internalType": "bytes",
          "name": "data",
          "type": "bytes"
        }
      ],
      "name": "safeTransferFrom",
      "outputs": [],
      "stateMutability": "nonpayable",
      "type": "function"
    },
    {
      "inputs": [
        {
          "internalType": "address",
          "name": "operator",
          "type": "address"
        },
        {
          "internalType": "bool",
          "name": "approved",
          "type": "bool"
        }
      ],
      "name": "setApprovalForAll",
      "outputs": [],
      "stateMutability": "nonpayable",
      "type": "function"
    },
    {
      "inputs": [
        {
          "internalType": "string",
          "name": "_level1URI",
          "type": "string"
        },
        {
          "internalType": "string",
          "name": "_level2URI",
          "type": "string"
        },
        {
          "internalType": "string",
          "name": "_level3URI",
          "type": "string"
        }
      ],
      "name": "setLevelURIs",
      "outputs": [],
      "stateMutability": "nonpayable",
      "type": "function"
    },
    {
      "inputs": [
        {
          "internalType": "bytes4",
          "name": "interfaceId",
          "type": "bytes4"
        }
      ],
      "name": "supportsInterface",
      "outputs": [
        {
          "internalType": "bool",
          "name": "",
          "type": "bool"
        }
      ],
      "stateMutability": "view",
      "type": "function"
    },
    {
      "inputs": [],
      "name": "symbol",
      "outputs": [
        {
          "internalType": "string",
          "name": "",
          "type": "string"
        }
      ],
      "stateMutability": "view",
      "type": "function"
    },
    {
      "inputs": [
        {
          "internalType": "uint256",
          "name": "",
          "type": "uint256"
        }
      ],
      "name": "tokenLevel",
      "outputs": [
        {
          "internalType": "enum PlasticContributionNFT.NFTLevel",
          "name": "",
          "type": "uint8"
        }
      ],
      "stateMutability": "view",
      "type": "function"
    },
    {
      "inputs": [
        {
          "internalType": "uint256",
          "name": "tokenId",
          "type": "uint256"
        }
      ],
      "name": "tokenURI",
      "outputs": [
        {
          "internalType": "string",
          "name": "",
          "type": "string"
        }
      ],
      "stateMutability": "view",
      "type": "function"
    },
    {
      "inputs": [
        {
          "internalType": "address",
          "name": "from",
          "type": "address"
        },
        {
          "internalType": "address",
          "name": "to",
          "type": "address"
        },
        {
          "internalType": "uint256",
          "name": "tokenId",
          "type": "uint256"
        }
      ],
      "name": "transferFrom",
      "outputs": [],
      "stateMutability": "nonpayable",
      "type": "function"
    },
    {
      "inputs": [
        {
          "internalType": "address",
          "name": "newOwner",
          "type": "address"
        }
      ],
      "name": "transferOwnership",
      "outputs": [],
      "stateMutability": "nonpayable",
      "type": "function"
    },
    {
      "inputs": [
        {
          "internalType": "address",
          "name": "",
          "type": "address"
        }
      ],
      "name": "userContributions",
      "outputs": [
        {
          "internalType": "uint256",
          "name": "",
          "type": "uint256"
        }
      ],
      "stateMutability": "view",
      "type": "function"
    }
  ],
  "bytecode": "0x608060405260405180608001604052806050815260200161379760509139600b908161002b91906104b5565b5060405180608001604052806050815260200161374760509139600c908161005391906104b5565b506040518060800160405280605081526020016136f760509139600d908161007b91906104b5565b5034801561008857600080fd5b50336040518060400160405280601681526020017f506c6173746963436f6e747269627574696f6e4e4654000000000000000000008152506040518060400160405280600381526020017f50434e0000000000000000000000000000000000000000000000000000000000815250816000908161010591906104b5565b50806001908161011591906104b5565b505050600073ffffffffffffffffffffffffffffffffffffffff168173ffffffffffffffffffffffffffffffffffffffff160361018a5760006040517f1e4fbdf700000000000000000000000000000000000000000000000000000000815260040161018191906105c8565b60405180910390fd5b6101998161019f60201b60201c565b506105e3565b6000600760009054906101000a900473ffffffffffffffffffffffffffffffffffffffff16905081600760006101000a81548173ffffffffffffffffffffffffffffffffffffffff021916908373ffffffffffffffffffffffffffffffffffffffff1602179055508173ffffffffffffffffffffffffffffffffffffffff168173ffffffffffffffffffffffffffffffffffffffff167f8be0079c531659141344cd1fd0a4f28419497f9722a3daafe3b4186f6b6457e060405160405180910390a35050565b600081519050919050565b7f4e487b7100000000000000000000000000000000000000000000000000000000600052604160045260246000fd5b7f4e487b7100000000000000000000000000000000000000000000000000000000600052602260045260246000fd5b600060028204905060018216806102e657607f821691505b6020821081036102f9576102f861029f565b5b50919050565b60008190508160005260206000209050919050565b60006020601f8301049050919050565b600082821b905092915050565b6000600883026103617fffffffffffffffffffffffffffffffffffffffffffffffffffffffffffffffff82610324565b61036b8683610324565b95508019841693508086168417925050509392505050565b6000819050919050565b6000819050919050565b60006103b26103ad6103a884610383565b61038d565b610383565b9050919050565b6000819050919050565b6103cc83610397565b6103e06103d8826103b9565b848454610331565b825550505050565b600090565b6103f56103e8565b6104008184846103c3565b505050565b5b81811015610424576104196000826103ed565b600181019050610406565b5050565b601f8211156104695761043a816102ff565b61044384610314565b81016020851015610452578190505b61046661045e85610314565b830182610405565b50505b505050565b600082821c905092915050565b600061048c6000198460080261046e565b1980831691505092915050565b60006104a5838361047b565b9150826002028217905092915050565b6104be82610265565b67ffffffffffffffff8111156104d7576104d6610270565b5b6104e182546102ce565b6104ec828285610428565b600060209050601f83116001811461051f576000841561050d578287015190505b6105178582610499565b86555061057f565b601f19841661052d866102ff565b60005b8281101561055557848901518255600182019150602085019450602081019050610530565b86831015610572578489015161056e601f89168261047b565b8355505b6001600288020188555050505b505050505050565b600073ffffffffffffffffffffffffffffffffffffffff82169050919050565b60006105b282610587565b9050919050565b6105c2816105a7565b82525050565b60006020820190506105dd60008301846105b9565b92915050565b613105806105f26000396000f3fe608060405234801561001057600080fd5b50600436106101735760003560e01c80636f90b5e6116100de578063a22cb46511610097578063c87b56dd11610071578063c87b56dd1461045e578063e1ecbd3c1461048e578063e985e9c5146104ac578063f2fde38b146104dc57610173565b8063a22cb465146103f6578063ab8ece8b14610412578063b88d4fde1461044257610173565b80636f90b5e61461034657806370a0823114610364578063715018a61461039457806386e4ee511461039e5780638da5cb5b146103ba57806395d89b41146103d857610173565b80630f6ca1a8116101305780630f6ca1a81461026057806323b872dd1461029057806342842e0e146102ac57806354ba0f27146102c857806358fd85b5146102f85780636352211e1461031657610173565b806301ffc9a71461017857806306fdde03146101a8578063080e035d146101c6578063081812fc146101f6578063095ea7b3146102265780630c223a5c14610242575b600080fd5b610192600480360381019061018d9190612415565b6104f8565b60405161019f919061245d565b60405180910390f35b6101b0610559565b6040516101bd9190612508565b60405180910390f35b6101e060048036038101906101db9190612560565b6105eb565b6040516101ed9190612604565b60405180910390f35b610210600480360381019061020b9190612560565b610615565b60405161021d9190612660565b60405180910390f35b610240600480360381019061023b91906126a7565b610631565b005b61024a610647565b6040516102579190612508565b60405180910390f35b61027a600480360381019061027591906126e7565b6106d5565b6040516102879190612723565b60405180910390f35b6102aa60048036038101906102a5919061273e565b6106ed565b005b6102c660048036038101906102c1919061273e565b6107ef565b005b6102e260048036038101906102dd91906126e7565b61080f565b6040516102ef9190612723565b60405180910390f35b6103006108f8565b60405161030d9190612508565b60405180910390f35b610330600480360381019061032b9190612560565b610986565b60405161033d9190612660565b60405180910390f35b61034e610998565b60405161035b9190612723565b60405180910390f35b61037e600480360381019061037991906126e7565b61099d565b60405161038b9190612723565b60405180910390f35b61039c610a57565b005b6103b860048036038101906103b391906128c6565b610a6b565b005b6103c2610b88565b6040516103cf9190612660565b60405180910390f35b6103e0610bb2565b6040516103ed9190612508565b60405180910390f35b610410600480360381019061040b9190612999565b610c44565b005b61042c60048036038101906104279190612560565b610c5a565b6040516104399190612604565b60405180910390f35b61045c60048036038101906104579190612a7a565b610c7a565b005b61047860048036038101906104739190612560565b610c97565b6040516104859190612508565b60405180910390f35b610496610ca9565b6040516104a39190612508565b60405180910390f35b6104c660048036038101906104c19190612afd565b610d37565b6040516104d3919061245d565b60405180910390f35b6104f660048036038101906104f191906126e7565b610dcb565b005b6000634906490660e01b7bffffffffffffffffffffffffffffffffffffffffffffffffffffffff1916827bffffffffffffffffffffffffffffffffffffffffffffffffffffffff19161480610552575061055182610e51565b5b9050919050565b60606000805461056890612b6c565b80601f016020809104026020016040519081016040528092919081815260200182805461059490612b6c565b80156105e15780601f106105b6576101008083540402835291602001916105e1565b820191906000526020600020905b8154815290600101906020018083116105c457829003601f168201915b5050505050905090565b6000600a600083815260200190815260200160002060009054906101000a900460ff169050919050565b600061062082610f33565b5061062a82610fbb565b9050919050565b610643828261063e610ff8565b611000565b5050565b600b805461065490612b6c565b80601f016020809104026020016040519081016040528092919081815260200182805461068090612b6c565b80156106cd5780601f106106a2576101008083540402835291602001916106cd565b820191906000526020600020905b8154815290600101906020018083116106b057829003601f168201915b505050505081565b60096020528060005260406000206000915090505481565b600073ffffffffffffffffffffffffffffffffffffffff168273ffffffffffffffffffffffffffffffffffffffff160361075f5760006040517f64a0ae920000000000000000000000000000000000000000000000000000000081526004016107569190612660565b60405180910390fd5b6000610773838361076e610ff8565b611012565b90508373ffffffffffffffffffffffffffffffffffffffff168173ffffffffffffffffffffffffffffffffffffffff16146107e9578382826040517f64283d7b0000000000000000000000000000000000000000000000000000000081526004016107e093929190612b9d565b60405180910390fd5b50505050565b61080a83838360405180602001604052806000815250610c7a565b505050565b6000806008600081548092919061082590612c03565b91905055905060006108368461122c565b90506000610843826112ac565b905061084f85846114bd565b61085983826115b6565b81600a600085815260200190815260200160002060006101000a81548160ff0219169083600281111561088f5761088e61258d565b5b021790555061089d85611612565b8473ffffffffffffffffffffffffffffffffffffffff167f5716925f2a990bb51e5354134a606547c86dc787be1a2729eef575fd0c2bea1e84846040516108e5929190612c4b565b60405180910390a2829350505050919050565b600c805461090590612b6c565b80601f016020809104026020016040519081016040528092919081815260200182805461093190612b6c565b801561097e5780601f106109535761010080835404028352916020019161097e565b820191906000526020600020905b81548152906001019060200180831161096157829003601f168201915b505050505081565b600061099182610f33565b9050919050565b600481565b60008073ffffffffffffffffffffffffffffffffffffffff168273ffffffffffffffffffffffffffffffffffffffff1603610a105760006040517f89c62b64000000000000000000000000000000000000000000000000000000008152600401610a079190612660565b60405180910390fd5b600360008373ffffffffffffffffffffffffffffffffffffffff1673ffffffffffffffffffffffffffffffffffffffff168152602001908152602001600020549050919050565b610a5f611791565b610a696000611818565b565b610a73611791565b82600b9081610a829190612e20565b5081600c9081610a929190612e20565b5080600d9081610aa29190612e20565b5060006002811115610ab757610ab661258d565b5b7f321a96e42e10e80f92468857e66ef9e9c0848c1df2215d097d627f228ad594dc84604051610ae69190612508565b60405180910390a260016002811115610b0257610b0161258d565b5b7f321a96e42e10e80f92468857e66ef9e9c0848c1df2215d097d627f228ad594dc83604051610b319190612508565b60405180910390a2600280811115610b4c57610b4b61258d565b5b7f321a96e42e10e80f92468857e66ef9e9c0848c1df2215d097d627f228ad594dc82604051610b7b9190612508565b60405180910390a2505050565b6000600760009054906101000a900473ffffffffffffffffffffffffffffffffffffffff16905090565b606060018054610bc190612b6c565b80601f0160208091040260200160405190810160405280929190818152602001828054610bed90612b6c565b8015610c3a5780601f10610c0f57610100808354040283529160200191610c3a565b820191906000526020600020905b815481529060010190602001808311610c1d57829003601f168201915b5050505050905090565b610c56610c4f610ff8565b83836118de565b5050565b600a6020528060005260406000206000915054906101000a900460ff1681565b610c858484846106ed565b610c9184848484611a4d565b50505050565b6060610ca282611c04565b9050919050565b600d8054610cb690612b6c565b80601f0160208091040260200160405190810160405280929190818152602001828054610ce290612b6c565b8015610d2f5780601f10610d0457610100808354040283529160200191610d2f565b820191906000526020600020905b815481529060010190602001808311610d1257829003601f168201915b505050505081565b6000600560008473ffffffffffffffffffffffffffffffffffffffff1673ffffffffffffffffffffffffffffffffffffffff16815260200190815260200160002060008373ffffffffffffffffffffffffffffffffffffffff1673ffffffffffffffffffffffffffffffffffffffff16815260200190815260200160002060009054906101000a900460ff16905092915050565b610dd3611791565b600073ffffffffffffffffffffffffffffffffffffffff168173ffffffffffffffffffffffffffffffffffffffff1603610e455760006040517f1e4fbdf7000000000000000000000000000000000000000000000000000000008152600401610e3c9190612660565b60405180910390fd5b610e4e81611818565b50565b60007f80ac58cd000000000000000000000000000000000000000000000000000000007bffffffffffffffffffffffffffffffffffffffffffffffffffffffff1916827bffffffffffffffffffffffffffffffffffffffffffffffffffffffff19161480610f1c57507f5b5e139f000000000000000000000000000000000000000000000000000000007bffffffffffffffffffffffffffffffffffffffffffffffffffffffff1916827bffffffffffffffffffffffffffffffffffffffffffffffffffffffff1916145b80610f2c5750610f2b82611d17565b5b9050919050565b600080610f3f83611d81565b9050600073ffffffffffffffffffffffffffffffffffffffff168173ffffffffffffffffffffffffffffffffffffffff1603610fb257826040517f7e273289000000000000000000000000000000000000000000000000000000008152600401610fa99190612723565b60405180910390fd5b80915050919050565b60006004600083815260200190815260200160002060009054906101000a900473ffffffffffffffffffffffffffffffffffffffff169050919050565b600033905090565b61100d8383836001611dbe565b505050565b60008061101e84611d81565b9050600073ffffffffffffffffffffffffffffffffffffffff168373ffffffffffffffffffffffffffffffffffffffff16146110605761105f818486611f83565b5b600073ffffffffffffffffffffffffffffffffffffffff168173ffffffffffffffffffffffffffffffffffffffff16146110f1576110a2600085600080611dbe565b6001600360008373ffffffffffffffffffffffffffffffffffffffff1673ffffffffffffffffffffffffffffffffffffffff168152602001908152602001600020600082825403925050819055505b600073ffffffffffffffffffffffffffffffffffffffff168573ffffffffffffffffffffffffffffffffffffffff1614611174576001600360008773ffffffffffffffffffffffffffffffffffffffff1673ffffffffffffffffffffffffffffffffffffffff168152602001908152602001600020600082825401925050819055505b846002600086815260200190815260200160002060006101000a81548173ffffffffffffffffffffffffffffffffffffffff021916908373ffffffffffffffffffffffffffffffffffffffff160217905550838573ffffffffffffffffffffffffffffffffffffffff168273ffffffffffffffffffffffffffffffffffffffff167fddf252ad1be2c89b69c2b068fc378daa952ba7f163c4a11628f55a4df523b3ef60405160405180910390a4809150509392505050565b600080600960008473ffffffffffffffffffffffffffffffffffffffff1673ffffffffffffffffffffffffffffffffffffffff1681526020019081526020016000205490506002600461127f9190612ef2565b811061128f5760029150506112a7565b600481106112a15760019150506112a7565b60009150505b919050565b6060600060028111156112c2576112c161258d565b5b8260028111156112d5576112d461258d565b5b0361136c57600b80546112e790612b6c565b80601f016020809104026020016040519081016040528092919081815260200182805461131390612b6c565b80156113605780601f1061133557610100808354040283529160200191611360565b820191906000526020600020905b81548152906001019060200180831161134357829003601f168201915b505050505090506114b8565b600160028111156113805761137f61258d565b5b8260028111156113935761139261258d565b5b0361142a57600c80546113a590612b6c565b80601f01602080910402602001604051908101604052809291908181526020018280546113d190612b6c565b801561141e5780601f106113f35761010080835404028352916020019161141e565b820191906000526020600020905b81548152906001019060200180831161140157829003601f168201915b505050505090506114b8565b600d805461143790612b6c565b80601f016020809104026020016040519081016040528092919081815260200182805461146390612b6c565b80156114b05780601f10611485576101008083540402835291602001916114b0565b820191906000526020600020905b81548152906001019060200180831161149357829003601f168201915b505050505090505b919050565b600073ffffffffffffffffffffffffffffffffffffffff168273ffffffffffffffffffffffffffffffffffffffff160361152f5760006040517f64a0ae920000000000000000000000000000000000000000000000000000000081526004016115269190612660565b60405180910390fd5b600061153d83836000611012565b9050600073ffffffffffffffffffffffffffffffffffffffff168173ffffffffffffffffffffffffffffffffffffffff16146115b15760006040517f73c6ac6e0000000000000000000000000000000000000000000000000000000081526004016115a89190612660565b60405180910390fd5b505050565b806006600084815260200190815260200160002090816115d69190612e20565b507ff8e1a15aba9398e019f0b49df1a4fde98ee17ae345cb5f6b5e2c27f5033e8ce7826040516116069190612723565b60405180910390a15050565b600960008273ffffffffffffffffffffffffffffffffffffffff1673ffffffffffffffffffffffffffffffffffffffff168152602001908152602001600020600081548092919061166290612c03565b91905055508073ffffffffffffffffffffffffffffffffffffffff167fd67ddc62ff4394149b89da714fc5bb3dbcb23066123079c3291c56777495c247600960008473ffffffffffffffffffffffffffffffffffffffff1673ffffffffffffffffffffffffffffffffffffffff168152602001908152602001600020546040516116ec9190612723565b60405180910390a2600260046117029190612ef2565b600960008373ffffffffffffffffffffffffffffffffffffffff1673ffffffffffffffffffffffffffffffffffffffff16815260200190815260200160002054111561178e576000600960008373ffffffffffffffffffffffffffffffffffffffff1673ffffffffffffffffffffffffffffffffffffffff168152602001908152602001600020819055505b50565b611799610ff8565b73ffffffffffffffffffffffffffffffffffffffff166117b7610b88565b73ffffffffffffffffffffffffffffffffffffffff1614611816576117da610ff8565b6040517f118cdaa700000000000000000000000000000000000000000000000000000000815260040161180d9190612660565b60405180910390fd5b565b6000600760009054906101000a900473ffffffffffffffffffffffffffffffffffffffff16905081600760006101000a81548173ffffffffffffffffffffffffffffffffffffffff021916908373ffffffffffffffffffffffffffffffffffffffff1602179055508173ffffffffffffffffffffffffffffffffffffffff168173ffffffffffffffffffffffffffffffffffffffff167f8be0079c531659141344cd1fd0a4f28419497f9722a3daafe3b4186f6b6457e060405160405180910390a35050565b600073ffffffffffffffffffffffffffffffffffffffff168273ffffffffffffffffffffffffffffffffffffffff160361194f57816040517f5b08ba180000000000000000000000000000000000000000000000000000000081526004016119469190612660565b60405180910390fd5b80600560008573ffffffffffffffffffffffffffffffffffffffff1673ffffffffffffffffffffffffffffffffffffffff16815260200190815260200160002060008473ffffffffffffffffffffffffffffffffffffffff1673ffffffffffffffffffffffffffffffffffffffff16815260200190815260200160002060006101000a81548160ff0219169083151502179055508173ffffffffffffffffffffffffffffffffffffffff168373ffffffffffffffffffffffffffffffffffffffff167f17307eab39ab6107e8899845ad3d59bd9653f200f220920489ca2b5937696c3183604051611a40919061245d565b60405180910390a3505050565b60008373ffffffffffffffffffffffffffffffffffffffff163b1115611bfe578273ffffffffffffffffffffffffffffffffffffffff1663150b7a02611a91610ff8565b8685856040518563ffffffff1660e01b8152600401611ab39493929190612f89565b6020604051808303816000875af1925050508015611aef57506040513d601f19601f82011682018060405250810190611aec9190612fea565b60015b611b73573d8060008114611b1f576040519150601f19603f3d011682016040523d82523d6000602084013e611b24565b606091505b506000815103611b6b57836040517f64a0ae92000000000000000000000000000000000000000000000000000000008152600401611b629190612660565b60405180910390fd5b805181602001fd5b63150b7a0260e01b7bffffffffffffffffffffffffffffffffffffffffffffffffffffffff1916817bffffffffffffffffffffffffffffffffffffffffffffffffffffffff191614611bfc57836040517f64a0ae92000000000000000000000000000000000000000000000000000000008152600401611bf39190612660565b60405180910390fd5b505b50505050565b6060611c0f82610f33565b506000600660008481526020019081526020016000208054611c3090612b6c565b80601f0160208091040260200160405190810160405280929190818152602001828054611c5c90612b6c565b8015611ca95780601f10611c7e57610100808354040283529160200191611ca9565b820191906000526020600020905b815481529060010190602001808311611c8c57829003601f168201915b505050505090506000611cba612047565b90506000815103611ccf578192505050611d12565b600082511115611d04578082604051602001611cec929190613053565b60405160208183030381529060405292505050611d12565b611d0d8461205e565b925050505b919050565b60007f01ffc9a7000000000000000000000000000000000000000000000000000000007bffffffffffffffffffffffffffffffffffffffffffffffffffffffff1916827bffffffffffffffffffffffffffffffffffffffffffffffffffffffff1916149050919050565b60006002600083815260200190815260200160002060009054906101000a900473ffffffffffffffffffffffffffffffffffffffff169050919050565b8080611df75750600073ffffffffffffffffffffffffffffffffffffffff168273ffffffffffffffffffffffffffffffffffffffff1614155b15611f2b576000611e0784610f33565b9050600073ffffffffffffffffffffffffffffffffffffffff168373ffffffffffffffffffffffffffffffffffffffff1614158015611e7257508273ffffffffffffffffffffffffffffffffffffffff168173ffffffffffffffffffffffffffffffffffffffff1614155b8015611e855750611e838184610d37565b155b15611ec757826040517fa9fbf51f000000000000000000000000000000000000000000000000000000008152600401611ebe9190612660565b60405180910390fd5b8115611f2957838573ffffffffffffffffffffffffffffffffffffffff168273ffffffffffffffffffffffffffffffffffffffff167f8c5be1e5ebec7d5bd14f71427d1e84f3dd0314c0f7b2291e5b200ac8c7c3b92560405160405180910390a45b505b836004600085815260200190815260200160002060006101000a81548173ffffffffffffffffffffffffffffffffffffffff021916908373ffffffffffffffffffffffffffffffffffffffff16021790555050505050565b611f8e8383836120c7565b61204257600073ffffffffffffffffffffffffffffffffffffffff168373ffffffffffffffffffffffffffffffffffffffff160361200357806040517f7e273289000000000000000000000000000000000000000000000000000000008152600401611ffa9190612723565b60405180910390fd5b81816040517f177e802f000000000000000000000000000000000000000000000000000000008152600401612039929190613077565b60405180910390fd5b505050565b606060405180602001604052806000815250905090565b606061206982610f33565b506000612074612047565b9050600081511161209457604051806020016040528060008152506120bf565b8061209e84612188565b6040516020016120af929190613053565b6040516020818303038152906040525b915050919050565b60008073ffffffffffffffffffffffffffffffffffffffff168373ffffffffffffffffffffffffffffffffffffffff161415801561217f57508273ffffffffffffffffffffffffffffffffffffffff168473ffffffffffffffffffffffffffffffffffffffff161480612140575061213f8484610d37565b5b8061217e57508273ffffffffffffffffffffffffffffffffffffffff1661216683610fbb565b73ffffffffffffffffffffffffffffffffffffffff16145b5b90509392505050565b60606000600161219784612256565b01905060008167ffffffffffffffff8111156121b6576121b561279b565b5b6040519080825280601f01601f1916602001820160405280156121e85781602001600182028036833780820191505090505b509050600082602001820190505b60011561224b578080600190039150507f3031323334353637383961626364656600000000000000000000000000000000600a86061a8153600a858161223f5761223e6130a0565b5b049450600085036121f6575b819350505050919050565b600080600090507a184f03e93ff9f4daa797ed6e38ed64bf6a1f01000000000000000083106122b4577a184f03e93ff9f4daa797ed6e38ed64bf6a1f01000000000000000083816122aa576122a96130a0565b5b0492506040810190505b6d04ee2d6d415b85acef810000000083106122f1576d04ee2d6d415b85acef810000000083816122e7576122e66130a0565b5b0492506020810190505b662386f26fc10000831061232057662386f26fc100008381612316576123156130a0565b5b0492506010810190505b6305f5e1008310612349576305f5e100838161233f5761233e6130a0565b5b0492506008810190505b612710831061236e576127108381612364576123636130a0565b5b0492506004810190505b606483106123915760648381612387576123866130a0565b5b0492506002810190505b600a83106123a0576001810190505b80915050919050565b6000604051905090565b600080fd5b600080fd5b60007fffffffff0000000000000000000000000000000000000000000000000000000082169050919050565b6123f2816123bd565b81146123fd57600080fd5b50565b60008135905061240f816123e9565b92915050565b60006020828403121561242b5761242a6123b3565b5b600061243984828501612400565b91505092915050565b60008115159050919050565b61245781612442565b82525050565b6000602082019050612472600083018461244e565b92915050565b600081519050919050565b600082825260208201905092915050565b60005b838110156124b2578082015181840152602081019050612497565b60008484015250505050565b6000601f19601f8301169050919050565b60006124da82612478565b6124e48185612483565b93506124f4818560208601612494565b6124fd816124be565b840191505092915050565b6000602082019050818103600083015261252281846124cf565b905092915050565b6000819050919050565b61253d8161252a565b811461254857600080fd5b50565b60008135905061255a81612534565b92915050565b600060208284031215612576576125756123b3565b5b60006125848482850161254b565b91505092915050565b7f4e487b7100000000000000000000000000000000000000000000000000000000600052602160045260246000fd5b600381106125cd576125cc61258d565b5b50565b60008190506125de826125bc565b919050565b60006125ee826125d0565b9050919050565b6125fe816125e3565b82525050565b600060208201905061261960008301846125f5565b92915050565b600073ffffffffffffffffffffffffffffffffffffffff82169050919050565b600061264a8261261f565b9050919050565b61265a8161263f565b82525050565b60006020820190506126756000830184612651565b92915050565b6126848161263f565b811461268f57600080fd5b50565b6000813590506126a18161267b565b92915050565b600080604083850312156126be576126bd6123b3565b5b60006126cc85828601612692565b92505060206126dd8582860161254b565b9150509250929050565b6000602082840312156126fd576126fc6123b3565b5b600061270b84828501612692565b91505092915050565b61271d8161252a565b82525050565b60006020820190506127386000830184612714565b92915050565b600080600060608486031215612757576127566123b3565b5b600061276586828701612692565b935050602061277686828701612692565b92505060406127878682870161254b565b9150509250925092565b600080fd5b600080fd5b7f4e487b7100000000000000000000000000000000000000000000000000000000600052604160045260246000fd5b6127d3826124be565b810181811067ffffffffffffffff821117156127f2576127f161279b565b5b80604052505050565b60006128056123a9565b905061281182826127ca565b919050565b600067ffffffffffffffff8211156128315761283061279b565b5b61283a826124be565b9050602081019050919050565b82818337600083830152505050565b600061286961286484612816565b6127fb565b90508281526020810184848401111561288557612884612796565b5b612890848285612847565b509392505050565b600082601f8301126128ad576128ac612791565b5b81356128bd848260208601612856565b91505092915050565b6000806000606084860312156128df576128de6123b3565b5b600084013567ffffffffffffffff8111156128fd576128fc6123b8565b5b61290986828701612898565b935050602084013567ffffffffffffffff81111561292a576129296123b8565b5b61293686828701612898565b925050604084013567ffffffffffffffff811115612957576129566123b8565b5b61296386828701612898565b9150509250925092565b61297681612442565b811461298157600080fd5b50565b6000813590506129938161296d565b92915050565b600080604083850312156129b0576129af6123b3565b5b60006129be85828601612692565b92505060206129cf85828601612984565b9150509250929050565b600067ffffffffffffffff8211156129f4576129f361279b565b5b6129fd826124be565b9050602081019050919050565b6000612a1d612a18846129d9565b6127fb565b905082815260208101848484011115612a3957612a38612796565b5b612a44848285612847565b509392505050565b600082601f830112612a6157612a60612791565b5b8135612a71848260208601612a0a565b91505092915050565b60008060008060808587031215612a9457612a936123b3565b5b6000612aa287828801612692565b9450506020612ab387828801612692565b9350506040612ac48782880161254b565b925050606085013567ffffffffffffffff811115612ae557612ae46123b8565b5b612af187828801612a4c565b91505092959194509250565b60008060408385031215612b1457612b136123b3565b5b6000612b2285828601612692565b9250506020612b3385828601612692565b9150509250929050565b7f4e487b7100000000000000000000000000000000000000000000000000000000600052602260045260246000fd5b60006002820490506001821680612b8457607f821691505b602082108103612b9757612b96612b3d565b5b50919050565b6000606082019050612bb26000830186612651565b612bbf6020830185612714565b612bcc6040830184612651565b949350505050565b7f4e487b7100000000000000000000000000000000000000000000000000000000600052601160045260246000fd5b6000612c0e8261252a565b91507fffffffffffffffffffffffffffffffffffffffffffffffffffffffffffffffff8203612c4057612c3f612bd4565b5b600182019050919050565b6000604082019050612c606000830185612714565b612c6d60208301846125f5565b9392505050565b60008190508160005260206000209050919050565b60006020601f8301049050919050565b600082821b905092915050565b600060088302612cd67fffffffffffffffffffffffffffffffffffffffffffffffffffffffffffffffff82612c99565b612ce08683612c99565b95508019841693508086168417925050509392505050565b6000819050919050565b6000612d1d612d18612d138461252a565b612cf8565b61252a565b9050919050565b6000819050919050565b612d3783612d02565b612d4b612d4382612d24565b848454612ca6565b825550505050565b600090565b612d60612d53565b612d6b818484612d2e565b505050565b5b81811015612d8f57612d84600082612d58565b600181019050612d71565b5050565b601f821115612dd457612da581612c74565b612dae84612c89565b81016020851015612dbd578190505b612dd1612dc985612c89565b830182612d70565b50505b505050565b600082821c905092915050565b6000612df760001984600802612dd9565b1980831691505092915050565b6000612e108383612de6565b9150826002028217905092915050565b612e2982612478565b67ffffffffffffffff811115612e4257612e4161279b565b5b612e4c8254612b6c565b612e57828285612d93565b600060209050601f831160018114612e8a5760008415612e78578287015190505b612e828582612e04565b865550612eea565b601f198416612e9886612c74565b60005b82811015612ec057848901518255600182019150602085019450602081019050612e9b565b86831015612edd5784890151612ed9601f891682612de6565b8355505b6001600288020188555050505b505050505050565b6000612efd8261252a565b9150612f088361252a565b9250828202612f168161252a565b91508282048414831517612f2d57612f2c612bd4565b5b5092915050565b600081519050919050565b600082825260208201905092915050565b6000612f5b82612f34565b612f658185612f3f565b9350612f75818560208601612494565b612f7e816124be565b840191505092915050565b6000608082019050612f9e6000830187612651565b612fab6020830186612651565b612fb86040830185612714565b8181036060830152612fca8184612f50565b905095945050505050565b600081519050612fe4816123e9565b92915050565b60006020828403121561300057612fff6123b3565b5b600061300e84828501612fd5565b91505092915050565b600081905092915050565b600061302d82612478565b6130378185613017565b9350613047818560208601612494565b80840191505092915050565b600061305f8285613022565b915061306b8284613022565b91508190509392505050565b600060408201905061308c6000830185612651565b6130996020830184612714565b9392505050565b7f4e487b7100000000000000000000000000000000000000000000000000000000600052601260045260246000fdfea2646970667358221220d210513b52944b464598158f7027ae1473a83e4bbe0303fe810f3728067377b064736f6c634300081b003368747470733a2f2f676174657761792e70696e6174612e636c6f75642f697066732f516d5147554b423356587a56464156537a374c61684d4847535178504636617874516b6e6350335967454270367568747470733a2f2f676174657761792e70696e6174612e636c6f75642f697066732f516d4e4e564479655866735468527665476f4c523444484e6831694c61327231724d703542436561716b366d4e3268747470733a2f2f676174657761792e70696e6174612e636c6f75642f697066732f516d54534e4c58744c754d426a6d797755547a395644523336326442454e5772484273316e4e5835455541676f47",
  "linkReferences": {},
  "deployedLinkReferences": {}
}