{
  "_format": "hh-sol-artifact-1",
  "contractName": "PlasticContributionNFT",
  "sourceName": "contracts/nft.sol",
  "abi": [
    {
      "inputs": [],
      "stateMutability": "nonpayable",
      "type": "constructor"
    },
    {
      "inputs": [
        {
          "internalType": "address",
          "name": "sender",
          "type": "address"
        },
        {
          "internalType": "uint256",
          "name": "tokenId",
          "type": "uint256"
        },
        {
          "internalType": "address",
          "name": "owner",
          "type": "address"
        }
      ],
      "name": "ERC721IncorrectOwner",
      "type": "error"
    },
    {
      "inputs": [
        {
          "internalType": "address",
          "name": "operator",
          "type": "address"
        },
        {
          "internalType": "uint256",
          "name": "tokenId",
          "type": "uint256"
        }
      ],
      "name": "ERC721InsufficientApproval",
      "type": "error"
    },
    {
      "inputs": [
        {
          "internalType": "address",
          "name": "approver",
          "type": "address"
        }
      ],
      "name": "ERC721InvalidApprover",
      "type": "error"
    },
    {
      "inputs": [
        {
          "internalType": "address",
          "name": "operator",
          "type": "address"
        }
      ],
      "name": "ERC721InvalidOperator",
      "type": "error"
    },
    {
      "inputs": [
        {
          "internalType": "address",
          "name": "owner",
          "type": "address"
        }
      ],
      "name": "ERC721InvalidOwner",
      "type": "error"
    },
    {
      "inputs": [
        {
          "internalType": "address",
          "name": "receiver",
          "type": "address"
        }
      ],
      "name": "ERC721InvalidReceiver",
      "type": "error"
    },
    {
      "inputs": [
        {
          "internalType": "address",
          "name": "sender",
          "type": "address"
        }
      ],
      "name": "ERC721InvalidSender",
      "type": "error"
    },
    {
      "inputs": [
        {
          "internalType": "uint256",
          "name": "tokenId",
          "type": "uint256"
        }
      ],
      "name": "ERC721NonexistentToken",
      "type": "error"
    },
    {
      "inputs": [],
      "name": "InvalidTokenId",
      "type": "error"
    },
    {
      "inputs": [
        {
          "internalType": "address",
          "name": "owner",
          "type": "address"
        }
      ],
      "name": "OwnableInvalidOwner",
      "type": "error"
    },
    {
      "inputs": [
        {
          "internalType": "address",
          "name": "account",
          "type": "address"
        }
      ],
      "name": "OwnableUnauthorizedAccount",
      "type": "error"
    },
    {
      "inputs": [],
      "name": "Unauthorized",
      "type": "error"
    },
    {
      "anonymous": false,
      "inputs": [
        {
          "indexed": true,
          "internalType": "address",
          "name": "owner",
          "type": "address"
        },
        {
          "indexed": true,
          "internalType": "address",
          "name": "approved",
          "type": "address"
        },
        {
          "indexed": true,
          "internalType": "uint256",
          "name": "tokenId",
          "type": "uint256"
        }
      ],
      "name": "Approval",
      "type": "event"
    },
    {
      "anonymous": false,
      "inputs": [
        {
          "indexed": true,
          "internalType": "address",
          "name": "owner",
          "type": "address"
        },
        {
          "indexed": true,
          "internalType": "address",
          "name": "operator",
          "type": "address"
        },
        {
          "indexed": false,
          "internalType": "bool",
          "name": "approved",
          "type": "bool"
        }
      ],
      "name": "ApprovalForAll",
      "type": "event"
    },
    {
      "anonymous": false,
      "inputs": [
        {
          "indexed": false,
          "internalType": "uint256",
          "name": "_fromTokenId",
          "type": "uint256"
        },
        {
          "indexed": false,
          "internalType": "uint256",
          "name": "_toTokenId",
          "type": "uint256"
        }
      ],
      "name": "BatchMetadataUpdate",
      "type": "event"
    },
    {
      "anonymous": false,
      "inputs": [
        {
          "indexed": true,
          "internalType": "address",
          "name": "recipient",
          "type": "address"
        },
        {
          "indexed": false,
          "internalType": "uint256",
          "name": "newContribution",
          "type": "uint256"
        }
      ],
      "name": "ContributionUpdated",
      "type": "event"
    },
    {
      "anonymous": false,
      "inputs": [
        {
          "indexed": false,
          "internalType": "uint256",
          "name": "_tokenId",
          "type": "uint256"
        }
      ],
      "name": "MetadataUpdate",
      "type": "event"
    },
    {
      "anonymous": false,
      "inputs": [
        {
          "indexed": true,
          "internalType": "uint256",
          "name": "tokenId",
          "type": "uint256"
        },
        {
          "indexed": false,
          "internalType": "enum PlasticContributionNFT.NFTLevel",
          "name": "newLevel",
          "type": "uint8"
        }
      ],
      "name": "NFTLevelUpgraded",
      "type": "event"
    },
    {
      "anonymous": false,
      "inputs": [
        {
          "indexed": true,
          "internalType": "address",
          "name": "recipient",
          "type": "address"
        },
        {
          "indexed": false,
          "internalType": "uint256",
          "name": "tokenId",
          "type": "uint256"
        },
        {
          "indexed": false,
          "internalType": "enum PlasticContributionNFT.NFTLevel",
          "name": "level",
          "type": "uint8"
        }
      ],
      "name": "NFTMinted",
      "type": "event"
    },
    {
      "anonymous": false,
      "inputs": [
        {
          "indexed": true,
          "internalType": "address",
          "name": "previousOwner",
          "type": "address"
        },
        {
          "indexed": true,
          "internalType": "address",
          "name": "newOwner",
          "type": "address"
        }
      ],
      "name": "OwnershipTransferred",
      "type": "event"
    },
    {
      "anonymous": false,
      "inputs": [
        {
          "indexed": true,
          "internalType": "address",
          "name": "from",
          "type": "address"
        },
        {
          "indexed": true,
          "internalType": "address",
          "name": "to",
          "type": "address"
        },
        {
          "indexed": true,
          "internalType": "uint256",
          "name": "tokenId",
          "type": "uint256"
        }
      ],
      "name": "Transfer",
      "type": "event"
    },
    {
      "anonymous": false,
      "inputs": [
        {
          "indexed": true,
          "internalType": "enum PlasticContributionNFT.NFTLevel",
          "name": "level",
          "type": "uint8"
        },
        {
          "indexed": false,
          "internalType": "string",
          "name": "newURI",
          "type": "string"
        }
      ],
      "name": "URIUpdated",
      "type": "event"
    },
    {
      "inputs": [],
      "name": "CONTRIBUTION_THRESHOLD",
      "outputs": [
        {
          "internalType": "uint256",
          "name": "",
          "type": "uint256"
        }
      ],
      "stateMutability": "view",
      "type": "function"
    },
    {
      "inputs": [
        {
          "internalType": "address",
          "name": "to",
          "type": "address"
        },
        {
          "internalType": "uint256",
          "name": "tokenId",
          "type": "uint256"
        }
      ],
      "name": "approve",
      "outputs": [],
      "stateMutability": "nonpayable",
      "type": "function"
    },
    {
      "inputs": [
        {
          "internalType": "address",
          "name": "owner",
          "type": "address"
        }
      ],
      "name": "balanceOf",
      "outputs": [
        {
          "internalType": "uint256",
          "name": "",
          "type": "uint256"
        }
      ],
      "stateMutability": "view",
      "type": "function"
    },
    {
      "inputs": [
        {
          "internalType": "uint256",
          "name": "tokenId",
          "type": "uint256"
        }
      ],
      "name": "getApproved",
      "outputs": [
        {
          "internalType": "address",
          "name": "",
          "type": "address"
        }
      ],
      "stateMutability": "view",
      "type": "function"
    },
    {
      "inputs": [
        {
          "internalType": "uint256",
          "name": "tokenId",
          "type": "uint256"
        }
      ],
      "name": "getNFTLevel",
      "outputs": [
        {
          "internalType": "enum PlasticContributionNFT.NFTLevel",
          "name": "",
          "type": "uint8"
        }
      ],
      "stateMutability": "view",
      "type": "function"
    },
    {
      "inputs": [
        {
          "internalType": "address",
          "name": "owner",
          "type": "address"
        },
        {
          "internalType": "address",
          "name": "operator",
          "type": "address"
        }
      ],
      "name": "isApprovedForAll",
      "outputs": [
        {
          "internalType": "bool",
          "name": "",
          "type": "bool"
        }
      ],
      "stateMutability": "view",
      "type": "function"
    },
    {
      "inputs": [],
      "name": "level1URI",
      "outputs": [
        {
          "internalType": "string",
          "name": "",
          "type": "string"
        }
      ],
      "stateMutability": "view",
      "type": "function"
    },
    {
      "inputs": [],
      "name": "level2URI",
      "outputs": [
        {
          "internalType": "string",
          "name": "",
          "type": "string"
        }
      ],
      "stateMutability": "view",
      "type": "function"
    },
    {
      "inputs": [],
      "name": "level3URI",
      "outputs": [
        {
          "internalType": "string",
          "name": "",
          "type": "string"
        }
      ],
      "stateMutability": "view",
      "type": "function"
    },
    {
      "inputs": [
        {
          "internalType": "address",
          "name": "recipient",
          "type": "address"
        }
      ],
      "name": "mintNFT",
      "outputs": [
        {
          "internalType": "uint256",
          "name": "",
          "type": "uint256"
        }
      ],
      "stateMutability": "nonpayable",
      "type": "function"
    },
    {
      "inputs": [],
      "name": "name",
      "outputs": [
        {
          "internalType": "string",
          "name": "",
          "type": "string"
        }
      ],
      "stateMutability": "view",
      "type": "function"
    },
    {
      "inputs": [],
      "name": "owner",
      "outputs": [
        {
          "internalType": "address",
          "name": "",
          "type": "address"
        }
      ],
      "stateMutability": "view",
      "type": "function"
    },
    {
      "inputs": [
        {
          "internalType": "uint256",
          "name": "tokenId",
          "type": "uint256"
        }
      ],
      "name": "ownerOf",
      "outputs": [
        {
          "internalType": "address",
          "name": "",
          "type": "address"
        }
      ],
      "stateMutability": "view",
      "type": "function"
    },
    {
      "inputs": [],
      "name": "renounceOwnership",
      "outputs": [],
      "stateMutability": "nonpayable",
      "type": "function"
    },
    {
      "inputs": [
        {
          "internalType": "address",
          "name": "from",
          "type": "address"
        },
        {
          "internalType": "address",
          "name": "to",
          "type": "address"
        },
        {
          "internalType": "uint256",
          "name": "tokenId",
          "type": "uint256"
        }
      ],
      "name": "safeTransferFrom",
      "outputs": [],
      "stateMutability": "nonpayable",
      "type": "function"
    },
    {
      "inputs": [
        {
          "internalType": "address",
          "name": "from",
          "type": "address"
        },
        {
          "internalType": "address",
          "name": "to",
          "type": "address"
        },
        {
          "internalType": "uint256",
          "name": "tokenId",
          "type": "uint256"
        },
        {
          "internalType": "bytes",
          "name": "data",
          "type": "bytes"
        }
      ],
      "name": "safeTransferFrom",
      "outputs": [],
      "stateMutability": "nonpayable",
      "type": "function"
    },
    {
      "inputs": [
        {
          "internalType": "address",
          "name": "operator",
          "type": "address"
        },
        {
          "internalType": "bool",
          "name": "approved",
          "type": "bool"
        }
      ],
      "name": "setApprovalForAll",
      "outputs": [],
      "stateMutability": "nonpayable",
      "type": "function"
    },
    {
      "inputs": [
        {
          "internalType": "string",
          "name": "_level1URI",
          "type": "string"
        },
        {
          "internalType": "string",
          "name": "_level2URI",
          "type": "string"
        },
        {
          "internalType": "string",
          "name": "_level3URI",
          "type": "string"
        }
      ],
      "name": "setLevelURIs",
      "outputs": [],
      "stateMutability": "nonpayable",
      "type": "function"
    },
    {
      "inputs": [
        {
          "internalType": "bytes4",
          "name": "interfaceId",
          "type": "bytes4"
        }
      ],
      "name": "supportsInterface",
      "outputs": [
        {
          "internalType": "bool",
          "name": "",
          "type": "bool"
        }
      ],
      "stateMutability": "view",
      "type": "function"
    },
    {
      "inputs": [],
      "name": "symbol",
      "outputs": [
        {
          "internalType": "string",
          "name": "",
          "type": "string"
        }
      ],
      "stateMutability": "view",
      "type": "function"
    },
    {
      "inputs": [
        {
          "internalType": "uint256",
          "name": "",
          "type": "uint256"
        }
      ],
      "name": "tokenLevel",
      "outputs": [
        {
          "internalType": "enum PlasticContributionNFT.NFTLevel",
          "name": "",
          "type": "uint8"
        }
      ],
      "stateMutability": "view",
      "type": "function"
    },
    {
      "inputs": [
        {
          "internalType": "uint256",
          "name": "tokenId",
          "type": "uint256"
        }
      ],
      "name": "tokenURI",
      "outputs": [
        {
          "internalType": "string",
          "name": "",
          "type": "string"
        }
      ],
      "stateMutability": "view",
      "type": "function"
    },
    {
      "inputs": [
        {
          "internalType": "address",
          "name": "from",
          "type": "address"
        },
        {
          "internalType": "address",
          "name": "to",
          "type": "address"
        },
        {
          "internalType": "uint256",
          "name": "tokenId",
          "type": "uint256"
        }
      ],
      "name": "transferFrom",
      "outputs": [],
      "stateMutability": "nonpayable",
      "type": "function"
    },
    {
      "inputs": [
        {
          "internalType": "address",
          "name": "newOwner",
          "type": "address"
        }
      ],
      "name": "transferOwnership",
      "outputs": [],
      "stateMutability": "nonpayable",
      "type": "function"
    },
    {
      "inputs": [
        {
          "internalType": "address",
          "name": "",
          "type": "address"
        }
      ],
      "name": "userContributions",
      "outputs": [
        {
          "internalType": "uint256",
          "name": "",
          "type": "uint256"
        }
      ],
      "stateMutability": "view",
      "type": "function"
    }
  ],
  "bytecode": "0x60806040526040518060a001604052806062815260200161370060629139600b908161002b91906104b5565b506040518060a001604052806062815260200161370060629139600c908161005391906104b5565b506040518060a001604052806062815260200161370060629139600d908161007b91906104b5565b5034801561008857600080fd5b50336040518060400160405280601681526020017f506c6173746963436f6e747269627574696f6e4e4654000000000000000000008152506040518060400160405280600381526020017f50434e0000000000000000000000000000000000000000000000000000000000815250816000908161010591906104b5565b50806001908161011591906104b5565b505050600073ffffffffffffffffffffffffffffffffffffffff168173ffffffffffffffffffffffffffffffffffffffff160361018a5760006040517f1e4fbdf700000000000000000000000000000000000000000000000000000000815260040161018191906105c8565b60405180910390fd5b6101998161019f60201b60201c565b506105e3565b6000600760009054906101000a900473ffffffffffffffffffffffffffffffffffffffff16905081600760006101000a81548173ffffffffffffffffffffffffffffffffffffffff021916908373ffffffffffffffffffffffffffffffffffffffff1602179055508173ffffffffffffffffffffffffffffffffffffffff168173ffffffffffffffffffffffffffffffffffffffff167f8be0079c531659141344cd1fd0a4f28419497f9722a3daafe3b4186f6b6457e060405160405180910390a35050565b600081519050919050565b7f4e487b7100000000000000000000000000000000000000000000000000000000600052604160045260246000fd5b7f4e487b7100000000000000000000000000000000000000000000000000000000600052602260045260246000fd5b600060028204905060018216806102e657607f821691505b6020821081036102f9576102f861029f565b5b50919050565b60008190508160005260206000209050919050565b60006020601f8301049050919050565b600082821b905092915050565b6000600883026103617fffffffffffffffffffffffffffffffffffffffffffffffffffffffffffffffff82610324565b61036b8683610324565b95508019841693508086168417925050509392505050565b6000819050919050565b6000819050919050565b60006103b26103ad6103a884610383565b61038d565b610383565b9050919050565b6000819050919050565b6103cc83610397565b6103e06103d8826103b9565b848454610331565b825550505050565b600090565b6103f56103e8565b6104008184846103c3565b505050565b5b81811015610424576104196000826103ed565b600181019050610406565b5050565b601f8211156104695761043a816102ff565b61044384610314565b81016020851015610452578190505b61046661045e85610314565b830182610405565b50505b505050565b600082821c905092915050565b600061048c6000198460080261046e565b1980831691505092915050565b60006104a5838361047b565b9150826002028217905092915050565b6104be82610265565b67ffffffffffffffff8111156104d7576104d6610270565b5b6104e182546102ce565b6104ec828285610428565b600060209050601f83116001811461051f576000841561050d578287015190505b6105178582610499565b86555061057f565b601f19841661052d866102ff565b60005b8281101561055557848901518255600182019150602085019450602081019050610530565b86831015610572578489015161056e601f89168261047b565b8355505b6001600288020188555050505b505050505050565b600073ffffffffffffffffffffffffffffffffffffffff82169050919050565b60006105b282610587565b9050919050565b6105c2816105a7565b82525050565b60006020820190506105dd60008301846105b9565b92915050565b61310e806105f26000396000f3fe608060405234801561001057600080fd5b50600436106101735760003560e01c80636f90b5e6116100de578063a22cb46511610097578063c87b56dd11610071578063c87b56dd1461045e578063e1ecbd3c1461048e578063e985e9c5146104ac578063f2fde38b146104dc57610173565b8063a22cb465146103f6578063ab8ece8b14610412578063b88d4fde1461044257610173565b80636f90b5e61461034657806370a0823114610364578063715018a61461039457806386e4ee511461039e5780638da5cb5b146103ba57806395d89b41146103d857610173565b80630f6ca1a8116101305780630f6ca1a81461026057806323b872dd1461029057806342842e0e146102ac57806354ba0f27146102c857806358fd85b5146102f85780636352211e1461031657610173565b806301ffc9a71461017857806306fdde03146101a8578063080e035d146101c6578063081812fc146101f6578063095ea7b3146102265780630c223a5c14610242575b600080fd5b610192600480360381019061018d919061241e565b6104f8565b60405161019f9190612466565b60405180910390f35b6101b0610559565b6040516101bd9190612511565b60405180910390f35b6101e060048036038101906101db9190612569565b6105eb565b6040516101ed919061260d565b60405180910390f35b610210600480360381019061020b9190612569565b610615565b60405161021d9190612669565b60405180910390f35b610240600480360381019061023b91906126b0565b610631565b005b61024a610647565b6040516102579190612511565b60405180910390f35b61027a600480360381019061027591906126f0565b6106d5565b604051610287919061272c565b60405180910390f35b6102aa60048036038101906102a59190612747565b6106ed565b005b6102c660048036038101906102c19190612747565b6107ef565b005b6102e260048036038101906102dd91906126f0565b61080f565b6040516102ef919061272c565b60405180910390f35b610300610901565b60405161030d9190612511565b60405180910390f35b610330600480360381019061032b9190612569565b61098f565b60405161033d9190612669565b60405180910390f35b61034e6109a1565b60405161035b919061272c565b60405180910390f35b61037e600480360381019061037991906126f0565b6109a6565b60405161038b919061272c565b60405180910390f35b61039c610a60565b005b6103b860048036038101906103b391906128cf565b610a74565b005b6103c2610b91565b6040516103cf9190612669565b60405180910390f35b6103e0610bbb565b6040516103ed9190612511565b60405180910390f35b610410600480360381019061040b91906129a2565b610c4d565b005b61042c60048036038101906104279190612569565b610c63565b604051610439919061260d565b60405180910390f35b61045c60048036038101906104579190612a83565b610c83565b005b61047860048036038101906104739190612569565b610ca0565b6040516104859190612511565b60405180910390f35b610496610cb2565b6040516104a39190612511565b60405180910390f35b6104c660048036038101906104c19190612b06565b610d40565b6040516104d39190612466565b60405180910390f35b6104f660048036038101906104f191906126f0565b610dd4565b005b6000634906490660e01b7bffffffffffffffffffffffffffffffffffffffffffffffffffffffff1916827bffffffffffffffffffffffffffffffffffffffffffffffffffffffff19161480610552575061055182610e5a565b5b9050919050565b60606000805461056890612b75565b80601f016020809104026020016040519081016040528092919081815260200182805461059490612b75565b80156105e15780601f106105b6576101008083540402835291602001916105e1565b820191906000526020600020905b8154815290600101906020018083116105c457829003601f168201915b5050505050905090565b6000600a600083815260200190815260200160002060009054906101000a900460ff169050919050565b600061062082610f3c565b5061062a82610fc4565b9050919050565b610643828261063e611001565b611009565b5050565b600b805461065490612b75565b80601f016020809104026020016040519081016040528092919081815260200182805461068090612b75565b80156106cd5780601f106106a2576101008083540402835291602001916106cd565b820191906000526020600020905b8154815290600101906020018083116106b057829003601f168201915b505050505081565b60096020528060005260406000206000915090505481565b600073ffffffffffffffffffffffffffffffffffffffff168273ffffffffffffffffffffffffffffffffffffffff160361075f5760006040517f64a0ae920000000000000000000000000000000000000000000000000000000081526004016107569190612669565b60405180910390fd5b6000610773838361076e611001565b61101b565b90508373ffffffffffffffffffffffffffffffffffffffff168173ffffffffffffffffffffffffffffffffffffffff16146107e9578382826040517f64283d7b0000000000000000000000000000000000000000000000000000000081526004016107e093929190612ba6565b60405180910390fd5b50505050565b61080a83838360405180602001604052806000815250610c83565b505050565b6000610819611235565b60006008600081548092919061082e90612c0c565b919050559050600061083f846112bc565b9050600061084c8261133c565b9050610858858461154d565b6108628382611646565b81600a600085815260200190815260200160002060006101000a81548160ff0219169083600281111561089857610897612596565b5b02179055506108a6856116a2565b8473ffffffffffffffffffffffffffffffffffffffff167f5716925f2a990bb51e5354134a606547c86dc787be1a2729eef575fd0c2bea1e84846040516108ee929190612c54565b60405180910390a2829350505050919050565b600c805461090e90612b75565b80601f016020809104026020016040519081016040528092919081815260200182805461093a90612b75565b80156109875780601f1061095c57610100808354040283529160200191610987565b820191906000526020600020905b81548152906001019060200180831161096a57829003601f168201915b505050505081565b600061099a82610f3c565b9050919050565b600481565b60008073ffffffffffffffffffffffffffffffffffffffff168273ffffffffffffffffffffffffffffffffffffffff1603610a195760006040517f89c62b64000000000000000000000000000000000000000000000000000000008152600401610a109190612669565b60405180910390fd5b600360008373ffffffffffffffffffffffffffffffffffffffff1673ffffffffffffffffffffffffffffffffffffffff168152602001908152602001600020549050919050565b610a68611235565b610a726000611821565b565b610a7c611235565b82600b9081610a8b9190612e29565b5081600c9081610a9b9190612e29565b5080600d9081610aab9190612e29565b5060006002811115610ac057610abf612596565b5b7f321a96e42e10e80f92468857e66ef9e9c0848c1df2215d097d627f228ad594dc84604051610aef9190612511565b60405180910390a260016002811115610b0b57610b0a612596565b5b7f321a96e42e10e80f92468857e66ef9e9c0848c1df2215d097d627f228ad594dc83604051610b3a9190612511565b60405180910390a2600280811115610b5557610b54612596565b5b7f321a96e42e10e80f92468857e66ef9e9c0848c1df2215d097d627f228ad594dc82604051610b849190612511565b60405180910390a2505050565b6000600760009054906101000a900473ffffffffffffffffffffffffffffffffffffffff16905090565b606060018054610bca90612b75565b80601f0160208091040260200160405190810160405280929190818152602001828054610bf690612b75565b8015610c435780601f10610c1857610100808354040283529160200191610c43565b820191906000526020600020905b815481529060010190602001808311610c2657829003601f168201915b5050505050905090565b610c5f610c58611001565b83836118e7565b5050565b600a6020528060005260406000206000915054906101000a900460ff1681565b610c8e8484846106ed565b610c9a84848484611a56565b50505050565b6060610cab82611c0d565b9050919050565b600d8054610cbf90612b75565b80601f0160208091040260200160405190810160405280929190818152602001828054610ceb90612b75565b8015610d385780601f10610d0d57610100808354040283529160200191610d38565b820191906000526020600020905b815481529060010190602001808311610d1b57829003601f168201915b505050505081565b6000600560008473ffffffffffffffffffffffffffffffffffffffff1673ffffffffffffffffffffffffffffffffffffffff16815260200190815260200160002060008373ffffffffffffffffffffffffffffffffffffffff1673ffffffffffffffffffffffffffffffffffffffff16815260200190815260200160002060009054906101000a900460ff16905092915050565b610ddc611235565b600073ffffffffffffffffffffffffffffffffffffffff168173ffffffffffffffffffffffffffffffffffffffff1603610e4e5760006040517f1e4fbdf7000000000000000000000000000000000000000000000000000000008152600401610e459190612669565b60405180910390fd5b610e5781611821565b50565b60007f80ac58cd000000000000000000000000000000000000000000000000000000007bffffffffffffffffffffffffffffffffffffffffffffffffffffffff1916827bffffffffffffffffffffffffffffffffffffffffffffffffffffffff19161480610f2557507f5b5e139f000000000000000000000000000000000000000000000000000000007bffffffffffffffffffffffffffffffffffffffffffffffffffffffff1916827bffffffffffffffffffffffffffffffffffffffffffffffffffffffff1916145b80610f355750610f3482611d20565b5b9050919050565b600080610f4883611d8a565b9050600073ffffffffffffffffffffffffffffffffffffffff168173ffffffffffffffffffffffffffffffffffffffff1603610fbb57826040517f7e273289000000000000000000000000000000000000000000000000000000008152600401610fb2919061272c565b60405180910390fd5b80915050919050565b60006004600083815260200190815260200160002060009054906101000a900473ffffffffffffffffffffffffffffffffffffffff169050919050565b600033905090565b6110168383836001611dc7565b505050565b60008061102784611d8a565b9050600073ffffffffffffffffffffffffffffffffffffffff168373ffffffffffffffffffffffffffffffffffffffff161461106957611068818486611f8c565b5b600073ffffffffffffffffffffffffffffffffffffffff168173ffffffffffffffffffffffffffffffffffffffff16146110fa576110ab600085600080611dc7565b6001600360008373ffffffffffffffffffffffffffffffffffffffff1673ffffffffffffffffffffffffffffffffffffffff168152602001908152602001600020600082825403925050819055505b600073ffffffffffffffffffffffffffffffffffffffff168573ffffffffffffffffffffffffffffffffffffffff161461117d576001600360008773ffffffffffffffffffffffffffffffffffffffff1673ffffffffffffffffffffffffffffffffffffffff168152602001908152602001600020600082825401925050819055505b846002600086815260200190815260200160002060006101000a81548173ffffffffffffffffffffffffffffffffffffffff021916908373ffffffffffffffffffffffffffffffffffffffff160217905550838573ffffffffffffffffffffffffffffffffffffffff168273ffffffffffffffffffffffffffffffffffffffff167fddf252ad1be2c89b69c2b068fc378daa952ba7f163c4a11628f55a4df523b3ef60405160405180910390a4809150509392505050565b61123d611001565b73ffffffffffffffffffffffffffffffffffffffff1661125b610b91565b73ffffffffffffffffffffffffffffffffffffffff16146112ba5761127e611001565b6040517f118cdaa70000000000000000000000000000000000000000000000000000000081526004016112b19190612669565b60405180910390fd5b565b600080600960008473ffffffffffffffffffffffffffffffffffffffff1673ffffffffffffffffffffffffffffffffffffffff1681526020019081526020016000205490506002600461130f9190612efb565b811061131f576002915050611337565b60048110611331576001915050611337565b60009150505b919050565b60606000600281111561135257611351612596565b5b82600281111561136557611364612596565b5b036113fc57600b805461137790612b75565b80601f01602080910402602001604051908101604052809291908181526020018280546113a390612b75565b80156113f05780601f106113c5576101008083540402835291602001916113f0565b820191906000526020600020905b8154815290600101906020018083116113d357829003601f168201915b50505050509050611548565b600160028111156114105761140f612596565b5b82600281111561142357611422612596565b5b036114ba57600c805461143590612b75565b80601f016020809104026020016040519081016040528092919081815260200182805461146190612b75565b80156114ae5780601f10611483576101008083540402835291602001916114ae565b820191906000526020600020905b81548152906001019060200180831161149157829003601f168201915b50505050509050611548565b600d80546114c790612b75565b80601f01602080910402602001604051908101604052809291908181526020018280546114f390612b75565b80156115405780601f1061151557610100808354040283529160200191611540565b820191906000526020600020905b81548152906001019060200180831161152357829003601f168201915b505050505090505b919050565b600073ffffffffffffffffffffffffffffffffffffffff168273ffffffffffffffffffffffffffffffffffffffff16036115bf5760006040517f64a0ae920000000000000000000000000000000000000000000000000000000081526004016115b69190612669565b60405180910390fd5b60006115cd8383600061101b565b9050600073ffffffffffffffffffffffffffffffffffffffff168173ffffffffffffffffffffffffffffffffffffffff16146116415760006040517f73c6ac6e0000000000000000000000000000000000000000000000000000000081526004016116389190612669565b60405180910390fd5b505050565b806006600084815260200190815260200160002090816116669190612e29565b507ff8e1a15aba9398e019f0b49df1a4fde98ee17ae345cb5f6b5e2c27f5033e8ce782604051611696919061272c565b60405180910390a15050565b600960008273ffffffffffffffffffffffffffffffffffffffff1673ffffffffffffffffffffffffffffffffffffffff16815260200190815260200160002060008154809291906116f290612c0c565b91905055508073ffffffffffffffffffffffffffffffffffffffff167fd67ddc62ff4394149b89da714fc5bb3dbcb23066123079c3291c56777495c247600960008473ffffffffffffffffffffffffffffffffffffffff1673ffffffffffffffffffffffffffffffffffffffff1681526020019081526020016000205460405161177c919061272c565b60405180910390a2600260046117929190612efb565b600960008373ffffffffffffffffffffffffffffffffffffffff1673ffffffffffffffffffffffffffffffffffffffff16815260200190815260200160002054111561181e576000600960008373ffffffffffffffffffffffffffffffffffffffff1673ffffffffffffffffffffffffffffffffffffffff168152602001908152602001600020819055505b50565b6000600760009054906101000a900473ffffffffffffffffffffffffffffffffffffffff16905081600760006101000a81548173ffffffffffffffffffffffffffffffffffffffff021916908373ffffffffffffffffffffffffffffffffffffffff1602179055508173ffffffffffffffffffffffffffffffffffffffff168173ffffffffffffffffffffffffffffffffffffffff167f8be0079c531659141344cd1fd0a4f28419497f9722a3daafe3b4186f6b6457e060405160405180910390a35050565b600073ffffffffffffffffffffffffffffffffffffffff168273ffffffffffffffffffffffffffffffffffffffff160361195857816040517f5b08ba1800000000000000000000000000000000000000000000000000000000815260040161194f9190612669565b60405180910390fd5b80600560008573ffffffffffffffffffffffffffffffffffffffff1673ffffffffffffffffffffffffffffffffffffffff16815260200190815260200160002060008473ffffffffffffffffffffffffffffffffffffffff1673ffffffffffffffffffffffffffffffffffffffff16815260200190815260200160002060006101000a81548160ff0219169083151502179055508173ffffffffffffffffffffffffffffffffffffffff168373ffffffffffffffffffffffffffffffffffffffff167f17307eab39ab6107e8899845ad3d59bd9653f200f220920489ca2b5937696c3183604051611a499190612466565b60405180910390a3505050565b60008373ffffffffffffffffffffffffffffffffffffffff163b1115611c07578273ffffffffffffffffffffffffffffffffffffffff1663150b7a02611a9a611001565b8685856040518563ffffffff1660e01b8152600401611abc9493929190612f92565b6020604051808303816000875af1925050508015611af857506040513d601f19601f82011682018060405250810190611af59190612ff3565b60015b611b7c573d8060008114611b28576040519150601f19603f3d011682016040523d82523d6000602084013e611b2d565b606091505b506000815103611b7457836040517f64a0ae92000000000000000000000000000000000000000000000000000000008152600401611b6b9190612669565b60405180910390fd5b805181602001fd5b63150b7a0260e01b7bffffffffffffffffffffffffffffffffffffffffffffffffffffffff1916817bffffffffffffffffffffffffffffffffffffffffffffffffffffffff191614611c0557836040517f64a0ae92000000000000000000000000000000000000000000000000000000008152600401611bfc9190612669565b60405180910390fd5b505b50505050565b6060611c1882610f3c565b506000600660008481526020019081526020016000208054611c3990612b75565b80601f0160208091040260200160405190810160405280929190818152602001828054611c6590612b75565b8015611cb25780601f10611c8757610100808354040283529160200191611cb2565b820191906000526020600020905b815481529060010190602001808311611c9557829003601f168201915b505050505090506000611cc3612050565b90506000815103611cd8578192505050611d1b565b600082511115611d0d578082604051602001611cf592919061305c565b60405160208183030381529060405292505050611d1b565b611d1684612067565b925050505b919050565b60007f01ffc9a7000000000000000000000000000000000000000000000000000000007bffffffffffffffffffffffffffffffffffffffffffffffffffffffff1916827bffffffffffffffffffffffffffffffffffffffffffffffffffffffff1916149050919050565b60006002600083815260200190815260200160002060009054906101000a900473ffffffffffffffffffffffffffffffffffffffff169050919050565b8080611e005750600073ffffffffffffffffffffffffffffffffffffffff168273ffffffffffffffffffffffffffffffffffffffff1614155b15611f34576000611e1084610f3c565b9050600073ffffffffffffffffffffffffffffffffffffffff168373ffffffffffffffffffffffffffffffffffffffff1614158015611e7b57508273ffffffffffffffffffffffffffffffffffffffff168173ffffffffffffffffffffffffffffffffffffffff1614155b8015611e8e5750611e8c8184610d40565b155b15611ed057826040517fa9fbf51f000000000000000000000000000000000000000000000000000000008152600401611ec79190612669565b60405180910390fd5b8115611f3257838573ffffffffffffffffffffffffffffffffffffffff168273ffffffffffffffffffffffffffffffffffffffff167f8c5be1e5ebec7d5bd14f71427d1e84f3dd0314c0f7b2291e5b200ac8c7c3b92560405160405180910390a45b505b836004600085815260200190815260200160002060006101000a81548173ffffffffffffffffffffffffffffffffffffffff021916908373ffffffffffffffffffffffffffffffffffffffff16021790555050505050565b611f978383836120d0565b61204b57600073ffffffffffffffffffffffffffffffffffffffff168373ffffffffffffffffffffffffffffffffffffffff160361200c57806040517f7e273289000000000000000000000000000000000000000000000000000000008152600401612003919061272c565b60405180910390fd5b81816040517f177e802f000000000000000000000000000000000000000000000000000000008152600401612042929190613080565b60405180910390fd5b505050565b606060405180602001604052806000815250905090565b606061207282610f3c565b50600061207d612050565b9050600081511161209d57604051806020016040528060008152506120c8565b806120a784612191565b6040516020016120b892919061305c565b6040516020818303038152906040525b915050919050565b60008073ffffffffffffffffffffffffffffffffffffffff168373ffffffffffffffffffffffffffffffffffffffff161415801561218857508273ffffffffffffffffffffffffffffffffffffffff168473ffffffffffffffffffffffffffffffffffffffff16148061214957506121488484610d40565b5b8061218757508273ffffffffffffffffffffffffffffffffffffffff1661216f83610fc4565b73ffffffffffffffffffffffffffffffffffffffff16145b5b90509392505050565b6060600060016121a08461225f565b01905060008167ffffffffffffffff8111156121bf576121be6127a4565b5b6040519080825280601f01601f1916602001820160405280156121f15781602001600182028036833780820191505090505b509050600082602001820190505b600115612254578080600190039150507f3031323334353637383961626364656600000000000000000000000000000000600a86061a8153600a8581612248576122476130a9565b5b049450600085036121ff575b819350505050919050565b600080600090507a184f03e93ff9f4daa797ed6e38ed64bf6a1f01000000000000000083106122bd577a184f03e93ff9f4daa797ed6e38ed64bf6a1f01000000000000000083816122b3576122b26130a9565b5b0492506040810190505b6d04ee2d6d415b85acef810000000083106122fa576d04ee2d6d415b85acef810000000083816122f0576122ef6130a9565b5b0492506020810190505b662386f26fc10000831061232957662386f26fc10000838161231f5761231e6130a9565b5b0492506010810190505b6305f5e1008310612352576305f5e1008381612348576123476130a9565b5b0492506008810190505b612710831061237757612710838161236d5761236c6130a9565b5b0492506004810190505b6064831061239a57606483816123905761238f6130a9565b5b0492506002810190505b600a83106123a9576001810190505b80915050919050565b6000604051905090565b600080fd5b600080fd5b60007fffffffff0000000000000000000000000000000000000000000000000000000082169050919050565b6123fb816123c6565b811461240657600080fd5b50565b600081359050612418816123f2565b92915050565b600060208284031215612434576124336123bc565b5b600061244284828501612409565b91505092915050565b60008115159050919050565b6124608161244b565b82525050565b600060208201905061247b6000830184612457565b92915050565b600081519050919050565b600082825260208201905092915050565b60005b838110156124bb5780820151818401526020810190506124a0565b60008484015250505050565b6000601f19601f8301169050919050565b60006124e382612481565b6124ed818561248c565b93506124fd81856020860161249d565b612506816124c7565b840191505092915050565b6000602082019050818103600083015261252b81846124d8565b905092915050565b6000819050919050565b61254681612533565b811461255157600080fd5b50565b6000813590506125638161253d565b92915050565b60006020828403121561257f5761257e6123bc565b5b600061258d84828501612554565b91505092915050565b7f4e487b7100000000000000000000000000000000000000000000000000000000600052602160045260246000fd5b600381106125d6576125d5612596565b5b50565b60008190506125e7826125c5565b919050565b60006125f7826125d9565b9050919050565b612607816125ec565b82525050565b600060208201905061262260008301846125fe565b92915050565b600073ffffffffffffffffffffffffffffffffffffffff82169050919050565b600061265382612628565b9050919050565b61266381612648565b82525050565b600060208201905061267e600083018461265a565b92915050565b61268d81612648565b811461269857600080fd5b50565b6000813590506126aa81612684565b92915050565b600080604083850312156126c7576126c66123bc565b5b60006126d58582860161269b565b92505060206126e685828601612554565b9150509250929050565b600060208284031215612706576127056123bc565b5b60006127148482850161269b565b91505092915050565b61272681612533565b82525050565b6000602082019050612741600083018461271d565b92915050565b6000806000606084860312156127605761275f6123bc565b5b600061276e8682870161269b565b935050602061277f8682870161269b565b925050604061279086828701612554565b9150509250925092565b600080fd5b600080fd5b7f4e487b7100000000000000000000000000000000000000000000000000000000600052604160045260246000fd5b6127dc826124c7565b810181811067ffffffffffffffff821117156127fb576127fa6127a4565b5b80604052505050565b600061280e6123b2565b905061281a82826127d3565b919050565b600067ffffffffffffffff82111561283a576128396127a4565b5b612843826124c7565b9050602081019050919050565b82818337600083830152505050565b600061287261286d8461281f565b612804565b90508281526020810184848401111561288e5761288d61279f565b5b612899848285612850565b509392505050565b600082601f8301126128b6576128b561279a565b5b81356128c684826020860161285f565b91505092915050565b6000806000606084860312156128e8576128e76123bc565b5b600084013567ffffffffffffffff811115612906576129056123c1565b5b612912868287016128a1565b935050602084013567ffffffffffffffff811115612933576129326123c1565b5b61293f868287016128a1565b925050604084013567ffffffffffffffff8111156129605761295f6123c1565b5b61296c868287016128a1565b9150509250925092565b61297f8161244b565b811461298a57600080fd5b50565b60008135905061299c81612976565b92915050565b600080604083850312156129b9576129b86123bc565b5b60006129c78582860161269b565b92505060206129d88582860161298d565b9150509250929050565b600067ffffffffffffffff8211156129fd576129fc6127a4565b5b612a06826124c7565b9050602081019050919050565b6000612a26612a21846129e2565b612804565b905082815260208101848484011115612a4257612a4161279f565b5b612a4d848285612850565b509392505050565b600082601f830112612a6a57612a6961279a565b5b8135612a7a848260208601612a13565b91505092915050565b60008060008060808587031215612a9d57612a9c6123bc565b5b6000612aab8782880161269b565b9450506020612abc8782880161269b565b9350506040612acd87828801612554565b925050606085013567ffffffffffffffff811115612aee57612aed6123c1565b5b612afa87828801612a55565b91505092959194509250565b60008060408385031215612b1d57612b1c6123bc565b5b6000612b2b8582860161269b565b9250506020612b3c8582860161269b565b9150509250929050565b7f4e487b7100000000000000000000000000000000000000000000000000000000600052602260045260246000fd5b60006002820490506001821680612b8d57607f821691505b602082108103612ba057612b9f612b46565b5b50919050565b6000606082019050612bbb600083018661265a565b612bc8602083018561271d565b612bd5604083018461265a565b949350505050565b7f4e487b7100000000000000000000000000000000000000000000000000000000600052601160045260246000fd5b6000612c1782612533565b91507fffffffffffffffffffffffffffffffffffffffffffffffffffffffffffffffff8203612c4957612c48612bdd565b5b600182019050919050565b6000604082019050612c69600083018561271d565b612c7660208301846125fe565b9392505050565b60008190508160005260206000209050919050565b60006020601f8301049050919050565b600082821b905092915050565b600060088302612cdf7fffffffffffffffffffffffffffffffffffffffffffffffffffffffffffffffff82612ca2565b612ce98683612ca2565b95508019841693508086168417925050509392505050565b6000819050919050565b6000612d26612d21612d1c84612533565b612d01565b612533565b9050919050565b6000819050919050565b612d4083612d0b565b612d54612d4c82612d2d565b848454612caf565b825550505050565b600090565b612d69612d5c565b612d74818484612d37565b505050565b5b81811015612d9857612d8d600082612d61565b600181019050612d7a565b5050565b601f821115612ddd57612dae81612c7d565b612db784612c92565b81016020851015612dc6578190505b612dda612dd285612c92565b830182612d79565b50505b505050565b600082821c905092915050565b6000612e0060001984600802612de2565b1980831691505092915050565b6000612e198383612def565b9150826002028217905092915050565b612e3282612481565b67ffffffffffffffff811115612e4b57612e4a6127a4565b5b612e558254612b75565b612e60828285612d9c565b600060209050601f831160018114612e935760008415612e81578287015190505b612e8b8582612e0d565b865550612ef3565b601f198416612ea186612c7d565b60005b82811015612ec957848901518255600182019150602085019450602081019050612ea4565b86831015612ee65784890151612ee2601f891682612def565b8355505b6001600288020188555050505b505050505050565b6000612f0682612533565b9150612f1183612533565b9250828202612f1f81612533565b91508282048414831517612f3657612f35612bdd565b5b5092915050565b600081519050919050565b600082825260208201905092915050565b6000612f6482612f3d565b612f6e8185612f48565b9350612f7e81856020860161249d565b612f87816124c7565b840191505092915050565b6000608082019050612fa7600083018761265a565b612fb4602083018661265a565b612fc1604083018561271d565b8181036060830152612fd38184612f59565b905095945050505050565b600081519050612fed816123f2565b92915050565b600060208284031215613009576130086123bc565b5b600061301784828501612fde565b91505092915050565b600081905092915050565b600061303682612481565b6130408185613020565b935061305081856020860161249d565b80840191505092915050565b6000613068828561302b565b9150613074828461302b565b91508190509392505050565b6000604082019050613095600083018561265a565b6130a2602083018461271d565b9392505050565b7f4e487b7100000000000000000000000000000000000000000000000000000000600052601260045260246000fdfea2646970667358221220be3a0951145af9c213023603eaef88222ac702aff277c743e59263862741be5364736f6c634300081b003368747470733a2f2f76696f6c65742d6d616a6f722d6f63656c6f742d3638362e6d7970696e6174612e636c6f75642f697066732f516d506a41437943704632734236446159526a57674b546f456873704e76537a4b474c4c4a6a6333767563596251",
  "linkReferences": {},
  "deployedLinkReferences": {}
}